:020000040800F2
:100000004004002005010008E3040008DB040008A8
:10001000DF0400085D010008CD08000800000000B2
:100020000000000000000000000000003906000889
:100030008903000800000000E50400082507000807
:100040001F0100081F0100081F0100081F01000810
:100050001F0100081F0100081F0100081F01000800
:100060001F0100081F0100081F0100081F010008F0
:100070001F0100081F0100081F0100081F010008E0
:100080001F0100081F0100081F0100081F010008D0
:100090001F0100081F0100081F0100081F010008C0
:1000A0001F0100081F0100081F0100081F010008B0
:1000B0001F0100081F0100081F0100081F010008A0
:1000C0001F0100081F0100081F0100081F01000890
:1000D0001F0100081F0100081F0100081F01000880
:1000E0001F0100081F0100081F010008DFF810D0E1
:1000F00000F022F800480047EF080008AFF3008046
:10010000400400200648804706480047FEE7FEE717
:10011000FEE7FEE7FEE7FEE7FEE7FEE7FEE7FEE7B7
:1001200029070008ED000008421C10F8011B0029F7
:10013000FBD1801A70470000064C074D06E0E068CE
:1001400040F0010394E8070098471034AC42F6D31E
:10015000FFF7D0FF040900082409000800BFFEE7EC
:1001600021B1026842F00102026004E002684FF629
:10017000FE731A400260704700B58BB01C4800F057
:100180003FF81C4800901C480190102002901A482B
:10019000FFF7CAFF03900020049080200590002004
:1001A0000690079008904FF44050099000200A9064
:1001B00069460F4800F0CAF80D48143800F020F8DE
:1001C0000C4800900D480190002002900F200390F1
:1001D00069460748143800F0B9F801210448FFF7D0
:1001E000BFFF012102481438FFF7BAFF0BB000BD72
:1001F0008000024004440040000000203000002045
:1002000001684FF6FE7211400160002101604160FB
:100210008160C1604B49884208D14A490839496820
:1002200041F00F01474A083A51608AE045491431CC
:10023000884208D143490839496841F0F001414AF0
:10024000083A51607DE03F492831884208D13D4954
:100250000839496841F470613A4A083A516070E0DF
:1002600038493C31884208D136490839496841F457
:100270007041344A083A516063E032495031884253
:1002800008D130490839496841F470212D4A083AAB
:10029000516056E02B496431884208D12949083918
:1002A000496841F47001274A083A516049E02549FC
:1002B0007831884208D123490839496841F0706192
:1002C000204A083A51603CE01F49884206D1011F8C
:1002D000096841F00F01021F116032E01A49143120
:1002E000884208D11849091F096841F0F001164AEF
:1002F000121F116025E014492831884208D11249A3
:10030000091F096841F470610F4A121F116018E05B
:100310000D493C31884208D10B49091F096841F455
:100320007041094A121F11600BE0074950318842A1
:1003300007D10549091F096841F47021024A121FBB
:1003400011607047080002400804024010B5002206
:10035000026847F6F0739A430C6A8B6823430C6972
:1003600023434C6923438C692343CC6923434C6A60
:1003700023438C6A23431A430260CB6843600B68B3
:1003800083604B68C36010BD7047000008B508204B
:10039000ADF8000004208DF803006946084800F01D
:1003A00011F80420ADF8000003208DF80200182099
:1003B0008DF803006946024800F004F808BD00000B
:1003C000000801402DE9F0410246002500260020EA
:1003D00000230024002791F803C00CF00F0591F8CA
:1003E00003C00CF0100CBCF1000F03D091F802C058
:1003F0004CEA050591F800C0BCF1000F31D014683B
:1004000000202BE04FF0010C0CFA00F3B1F800C013
:100410000CEA03069E4220D183004FF00F0C0CFA29
:1004200003F7BC4305FA03FC4CEA040491F803C04B
:10043000BCF1280F06D14FF0010C0CFA00FCC2F8F9
:1004400014C00AE091F803C0BCF1480F05D14FF089
:10045000010C0CFA00FCC2F810C0401C0828D1D3D3
:100460001460B1F800C0BCF1FF0F34DD5468002007
:100470002EE000F1080C4FF0010808FA0CF3B1F877
:1004800000C00CEA03069E4221D183004FF00F0CFE
:100490000CFA03F7BC4305FA03FC4CEA040491F898
:1004A00003C0BCF1280F05D100F1080C08FA0CF8C4
:1004B000C2F8148091F803C0BCF1480F07D100F1D5
:1004C000080C4FF0010808FA0CF8C2F81080401C24
:1004D0000828CED35460BDE8F08100BFFEE700BF1E
:1004E000FEE770477047000029B1064A526902438F
:1004F000044B5A6104E0034A52698243014B5A613A
:10050000704700000010024029B1064AD269024338
:10051000044BDA6104E0034AD2698243014BDA6199
:10052000704700000010024029B1064A9269024358
:10053000044B9A6104E0034A92698243014B9A6139
:10054000704700000010024010B501210520FFF7A0
:10055000EBFF01214804FFF7D7FF01210846FFF711
:10056000C3FF10BD30B500210022002400232D4D13
:100570006D6805F00C0121B1042905D0082923D1AB
:1005800005E0294D056022E0274D05601FE0254D5F
:100590006D6805F47012234D6D6805F480340225F2
:1005A00005EB92421CB9214D554305600BE01D4DF2
:1005B0006D6805F400351DB11C4D5543056002E022
:1005C000194D5543056002E0174D056000BF00BF9F
:1005D000144D6D6805F0F0010909154D6B5C056857
:1005E000DD4045600F4D6D6805F4E061090A104D6E
:1005F0006B5C4568DD4085600A4D6D6805F46051AF
:10060000C90A0B4D6B5C4568DD40C560054D6D68E2
:1006100005F44041890B074D6B5CC568B5FBF3F5EC
:10062000056130BD0010024000127A0000093D0053
:100630001900002029000020704710B500F002F8D2
:1006400010BD00000CB500200190009033480068F8
:1006500040F480303149086000BF3048006800F441
:10066000003000900198401C0190009818B9019842
:10067000B0F5A06FF1D12948006800F4003010B146
:100680000120009001E0002000900098012843D153
:100690002348006840F010002149086008460068BF
:1006A00020F0030008600846006840F0020008607F
:1006B0001A4840681949486008464068486008463A
:1006C000406840F4806048600846406820F47C1030
:1006D00048600846406840F4E810486008460068F2
:1006E00040F08070086000BF0C48006800F00070A7
:1006F0000028F9D00948406820F003000749486005
:100700000846406840F00200486000BF0348406867
:1007100000F00C000828F9D10CBD000000100240C8
:10072000002002407047000010B51348006840F0F8
:1007300001001149086008464068104908400E4908
:100740004860084600680E4908400B4908600846A2
:10075000006820F4802008600846406820F4FE000D
:1007600048604FF41F008860FFF767FF4FF000609C
:100770000449086010BD0000001002400000FFF8AE
:10078000FFFFF6FE08ED00E01FB54FF41650009095
:100790000020ADF80400ADF80600ADF80800ADF893
:1007A0000C000C20ADF80A006946064800F022F85B
:1007B0000122C021034800F013F80121014800F094
:1007C00003F81FBD0044004021B1828942F4005269
:1007D000828104E082894DF6FF731A40828170475E
:1007E0001AB1838A0B43838202E0838A8B4383821C
:1007F000704700002DE9F04786B005460E460024FC
:10080000A24600BFA1460027B08900B100BF2F4615
:100810002C8A4CF6FF700440F08804432C82AC898B
:100820004EF6F3100440B0883189084371890843BB
:100830000443AC81AC8A4FF6FF400440B0890443C6
:10084000AC8201A8FFF78EFE1F48874202D1DDF877
:1008500010A001E0DDF80CA0A88900F4004040B130
:100860000AEBCA0000EB0A1031684900B0FBF1F84E
:1008700007E00AEBCA0000EB0A1031688900B0FB00
:10088000F1F86420B8FBF0F004012009642101FBB9
:100890001089A88900F4004040B1322000EBC90063
:1008A000B0FBF1F000F00700044308E0322000EB59
:1008B00009106421B0FBF1F000F00F0004432C811B
:1008C00006B0BDE8F08700000038014000BFFEE739
:1008D00002E008C8121F08C1002AFAD17047704709
:1008E000002001E001C1121F002AFBD17047FFF771
:1008F0002BFEFFF74BFDFFF73FFCFFF745FF00BF67
:10090000FEE700002409000800000020300000007D
:10091000D00800085409000830000020100400002E
:10092000E008000844414920484F432042414348E1
:10093000204B484F41204841204E4F4900000000C5
:100940000001020304010203040607080902040669
:04095000080000009B
:0400000508000105E9
:00000001FF
