:020000040800F2
:100000000804002005010008B7020008AF0200083C
:10001000B30200085D01000821070008000000008D
:10002000000000000000000000000000D1050008F2
:10003000610100080000000075030008BD0600080B
:100040001F0100081F0100081F010008110500081A
:100050001F0100081F0100081F0100081F01000800
:100060001F0100081F0100081F0100081F010008F0
:100070001F0100081F0100081F0100081F010008E0
:100080001F0100081F0100081F0100081F010008D0
:100090001F0100081F0100081F0100081F010008C0
:1000A0001F0100081F0100081F0100081F010008B0
:1000B0001F0100081F0100081F0100081F010008A0
:1000C0001F0100081F0100081F0100081F01000890
:1000D0001F0100081F0100081F0100081F01000880
:1000E0001F0100081F0100081F010008DFF810D0E1
:1000F00000F01AF80048004743070008AFF30080FB
:10010000080400200648804706480047FEE7FEE74F
:10011000FEE7FEE7FEE7FEE7FEE7FEE7FEE7FEE7B7
:10012000C1060008ED000008064C074D06E0E06837
:1001300040F0010394E8070098471034AC42F6D32E
:10014000FFF7D8FF540700087407000810B5012016
:1001500000F032F9002000F02FF910BD00BFFEE7DB
:100160007047000008B510208DF803004002ADF87C
:10017000000003208DF802000121102000F00CF98E
:100180006946024800F004F808BD00000010014074
:100190002DE9F0410246002500260020002300241E
:1001A000002791F803C00CF00F0591F803C00CF084
:1001B000100CBCF1000F03D091F802C04CEA050509
:1001C00091F800C0BCF1000F31D0146800202BE082
:1001D0004FF0010C0CFA00F3B1F800C00CEA030672
:1001E0009E4220D183004FF00F0C0CFA03F7BC4362
:1001F00005FA03FC4CEA040491F803C0BCF1280F93
:1002000006D14FF0010C0CFA00FCC2F814C00AE051
:1002100091F803C0BCF1480F05D14FF0010C0CFA66
:1002200000FCC2F810C0401C0828D1D31460B1F8FB
:1002300000C0BCF1FF0F34DD546800202EE000F157
:10024000080C4FF0010808FA0CF3B1F800C00CEAF2
:1002500003069E4221D183004FF00F0C0CFA03F7E6
:10026000BC4305FA03FC4CEA040491F803C0BCF15A
:10027000280F05D100F1080C08FA0CF8C2F8148018
:1002800091F803C0BCF1480F07D100F1080C4FF002
:10029000010808FA0CF8C2F81080401C0828CED3D8
:1002A0005460BDE8F081416170470161704700BF53
:1002B000FEE700BFFEE7704708B54FF4C06000F0EE
:1002C00049F803208DF8000001208DF8010000207E
:1002D0008DF8020001208DF80300684600F002F856
:1002E00008BD000070B5002100230F22C47804B3BC
:1002F000154C246804F4E064C4F5E064210AC1F1FB
:100300000403CA40447804FA03F18478144021437A
:1003100009010E4C0678A155047804F01F0501244C
:10032000AC4005786D11AD0005F1E025C5F8004140
:1003300009E0047804F01F050124AC40044D067860
:10034000761145F8264070BD0CED00E000E400E0B9
:1003500080E100E002490143024A11607047000059
:100360000000FA050CED00E001490862704700004A
:1003700000000E427047000029B1064AD2690243CC
:10038000044BDA6104E0034AD2698243014BDA612B
:10039000704700000010024029B1064A92690243EA
:1003A000044B9A6104E0034A92698243014B9A61CB
:1003B00070470000001002400149086070470000CB
:1003C0004004424210B501460022002300204A1199
:1003D000012A02D1094C236806E0022A02D1074C07
:1003E000236A01E0054C636A01F01F020124944076
:1003F0001C400CB1012000E0002010BD00100240A4
:1004000000210B4A11700A4A203A82F82010012874
:1004100002D0042808D103E00121054A117004E04C
:100420000521034A117000E000BF00BF70470000C3
:100430002010024001490860704700003C0442421D
:100440000249096A0143014A1162704700100240E3
:10045000024909888143014A1180704704280040FD
:1004600010B5FFF773FE01214FF0C050FFF784FF76
:100470000120FFF779FF0120FFF7C2FF00BF4120F5
:10048000FFF7A0FF0028FAD04FF48070FFF7D8FFE5
:100490000120FFF7CFFF00F089F800F07DF801217F
:1004A000084600F059F800F077F80120FFF7D0FF78
:1004B00000F072F847F6FF7000F05EF800F06CF89C
:1004C00010BD00000348008840F01000014908807A
:1004D0007047000004280040034800884FF6EF7181
:1004E0000840014908807047042800400146002068
:1004F000064A12880A40D0B2044A121F12880A40E3
:1005000012B108B1012000E000207047042800402B
:1005100010B50120FFF7EAFFC8B10D480068401C84
:100520000B4908600846006800F0010028B94FF444
:1005300000510848FFF7B9FE04E04FF400510548A8
:10054000FFF7B1FE00F028F80120FFF781FF10BD92
:10055000000000200010014029B1064A1288024321
:10056000044B1A8004E0034A12888243014B1A802C
:10057000704700000028004000B50246FFF7A2FFC8
:10058000C2F3034003490880091D0A80FFF7A4FF56
:1005900000BD00000828004000BF0348008800F0AC
:1005A00020000028F9D07047042800400748008840
:1005B0004FF6F77108400549088000BF03480088DE
:1005C00000F008000028F9D070470000042800401F
:1005D000704710B500F002F810BD00000CB5002007
:1005E000019000903348006840F480303149086041
:1005F00000BF3048006800F4003000900198401CB3
:100600000190009818B90198B0F5A06FF1D1294870
:10061000006800F4003010B10120009001E00020DB
:1006200000900098012843D12348006840F0100052
:10063000214908600846006820F003000860084669
:10064000006840F0020008601A4840681949486094
:100650000846406848600846406840F4806048604A
:100660000846406820F47C1048600846406840F422
:10067000E81048600846006840F08070086000BFDD
:100680000C48006800F000700028F9D00948406864
:1006900020F00300074948600846406840F0020027
:1006A000486000BF0348406800F00C000828F9D1FA
:1006B0000CBD000000100240002002407047000006
:1006C00010B51348006840F0010011490860084661
:1006D0004068104908400E494860084600680E49C5
:1006E00008400B4908600846006820F48020086034
:1006F0000846406820F4FE0048604FF41F00886000
:10070000FFF767FF4FF000600449086010BD00006C
:10071000001002400000FFF8FFFFF6FE08ED00E0C9
:1007200000BFFEE702E008C8121F08C1002AFAD184
:1007300070477047002001E001C1121F002AFBD161
:100740007047FFF70FFDFFF78BFEFFF7B5FD00BF0A
:10075000FEE700007407000800000020040000000D
:1007600024070008780700080400002004040000A3
:0807700034070008000000003E
:0400000508000105E9
:00000001FF
