:020000040800F2
:1000000008040020050100080F0600080706000884
:100010000B06000885040008AD070008000000007A
:10002000000000000000000000000000350600088D
:1000300089040008000000001106000821070008DC
:100040001F0100081F0100081F0100081F01000810
:100050001F0100081F0100081F0100081F01000800
:100060001F0100081F0100081F0100081F010008F0
:100070001F0100081F0100081F0100081F010008E0
:100080001F0100081F0100081F0100081F010008D0
:100090001F0100081F0100081F0100081F010008C0
:1000A0001F0100081F0100081F0100081F010008B0
:1000B0001F0100081F0100081F0100081F010008A0
:1000C0001F0100081F0100081F0100081F01000890
:1000D0001F0100081F0100081F0100081F01000880
:1000E0001F0100081F0100081F010008DFF810D0E1
:1000F00000F0A6F900480047D1070008AFF30080E0
:10010000080400200648804706480047FEE7FEE74F
:10011000FEE7FEE7FEE7FEE7FEE7FEE7FEE7FEE7B7
:100120004D070008ED0000082DE9FE4F804681EAEA
:100130000300C00F0C46009021F0004123F0004561
:10014000B8EB0200A94105D24046214690461C4624
:100150000B46024623F00040104347D0270DC7F35B
:100160000A00C3F30A510290401A019040286BDA4A
:10017000C3F3130040F4801B0098924620B1002383
:10018000D2EB030A63EB0B0B01985946C0F1400216
:10019000504600F09FF806460D4650465946019AD3
:1001A00000F0A7F810EB08006141002487EA115223
:1001B00084EAE7731A4340D0009A62B3019A012A95
:1001C0004FEA075215DC001B61EB02014FF00042C1
:1001D00002EA0752CDE90042001C41F58011324687
:1001E0002B4600F0DEF803B0BDE8F08F4046214614
:1001F000F9E7001B61EB0201001C41F580130018B8
:100200005B412018A2F5001747EB030140EAD570C7
:10021000B6196D4111E06D084FEA360645EAC07522
:100220004FEA0752001B61EB0201001C41F58011EF
:1002300049084FEA30000019514132462B4603B0BD
:10024000BDE8F04F00F09EB8009801224000002366
:10025000D0EB020263EBE073009821464FEAE074B2
:10026000B8EB000061EB0401E9E783F000435BE7D2
:1002700081F0004158E700F0004230F000400AD021
:10028000C10D01F56071C0F3160042EA0151C208C8
:1002900040071143704700200146704701F00043BA
:1002A00030B421F0004150EA010206D00A0DA2F557
:1002B0006072C1F31301002A02DC30BC00207047D9
:1002C000440F44EAC104C100E01830BC00EBC25046
:1002D00000F021B8202A04DB203A00FA02F10020C5
:1002E00070479140C2F1200320FA03F31943904074
:1002F0007047202A06DBCB17203A41FA02F043EA86
:10030000E07306E041FA02F3D040C2F120029140CE
:100310000843194670470029A8BF7047401C490090
:1003200008BF20F00100704710B4B0FA80FC00FA5A
:100330000CF050EA010404BF10BC704749B1CCF185
:10034000200421FA04F411FA0CF118BF0121214311
:100350000843A3EB0C01CB1D4FEA00614FEA1020CC
:1003600042BF002010BC704700EBC350104400296E
:10037000A4BF10BC7047401C490008BF20F001001A
:1003800010BC704710B5141E73F1000408DA401C4D
:1003900041F1000192185B411A4301D120F00100A4
:1003A00010BD2DE9F04D92469B4611B1B1FA81F294
:1003B00002E0B0FA80F220329046FFF78BFF04464D
:1003C0000F4640EA0A0041EA0B0153465A460843E9
:1003D00013D0114653EA010019D0C8F1400250462B
:1003E00000F040F805460E46504659464246FFF793
:1003F00071FF084305D0012004E020463946BDE8DE
:10040000F08D0020054346EAE0762C4337430A98F6
:100410006305E40AA0EB08000022FD0A44EA475401
:100420000A3002D500200146E9E7010510196941AB
:10043000DDE9084500196941BDE8F04DA2E700007B
:10044000064C074D06E0E06840F0010394E8070021
:1004500098471034AC42F6D3FFF74CFE0008000872
:1004600020080008202A04DB203A21FA02F00021AB
:10047000704721FA02F3D040C2F1200291400843B4
:100480001946704700BFFEE77047000010E00A49B8
:100490004FF0E0225161002191610521116100BFFF
:1004A0004FF0E021096901F480310029F8D0401EA5
:1004B0000028ECD1704700003F19010008B510205A
:1004C0008DF803004002ADF8000003208DF8020013
:1004D0000121102000F09EF86946024800F004F85F
:1004E00008BD0000001001402DE9F0410246002542
:1004F0000026002000230024002791F803C00CF000
:100500000F0591F803C00CF0100CBCF1000F03D0E4
:1005100091F802C04CEA050591F800C0BCF1000F4B
:1005200031D0146800202BE04FF0010C0CFA00F3DE
:10053000B1F800C00CEA03069E4220D183004FF0C0
:100540000F0C0CFA03F7BC4305FA03FC4CEA040455
:1005500091F803C0BCF1280F06D14FF0010C0CFA42
:1005600000FCC2F814C00AE091F803C0BCF1480FC7
:1005700005D14FF0010C0CFA00FCC2F810C0401C71
:100580000828D1D31460B1F800C0BCF1FF0F34DDEE
:10059000546800202EE000F1080C4FF0010808FA22
:1005A0000CF3B1F800C00CEA03069E4221D183008F
:1005B0004FF00F0C0CFA03F7BC4305FA03FC4CEAAE
:1005C000040491F803C0BCF1280F05D100F1080C18
:1005D00008FA0CF8C2F8148091F803C0BCF1480F77
:1005E00007D100F1080C4FF0010808FA0CF8C2F826
:1005F0001080401C0828CED35460BDE8F0814161D2
:1006000070470161704700BFFEE700BFFEE770471B
:100610007047000029B1064A92690243044B9A616F
:1006200004E0034A92698243014B9A6170470000DB
:1006300000100240704710B500F002F810BD000035
:100640000CB50020019000903348006840F48030E1
:100650003149086000BF3048006800F40030009065
:100660000198401C0190009818B90198B0F5A06F4E
:10067000F1D12948006800F4003010B10120009049
:1006800001E0002000900098012843D12348006831
:1006900040F01000214908600846006820F003007F
:1006A00008600846006840F0020008601A48406888
:1006B000194948600846406848600846406840F468
:1006C000806048600846406820F47C104860084616
:1006D000406840F4E81048600846006840F08070C8
:1006E000086000BF0C48006800F000700028F9D0D6
:1006F0000948406820F00300074948600846406800
:1007000040F00200486000BF0348406800F00C0061
:100710000828F9D10CBD0000001002400020024062
:100720002DE9F04107480068FFF7A5FD06460022C5
:10073000054BFFF7F9FC0446FFF7B0FD01490860DF
:10074000BDE8F081000000200000F03F10B5134824
:10075000006840F0010011490860084640681049EF
:1007600008400E494860084600680E4908400B4999
:1007700008600846006820F4802008600846406849
:1007800020F4FE0048604FF41F008860FFF753FF1D
:100790004FF000600449086010BD000000100240E6
:1007A0000000FFF8FFFFF6FE08ED00E000BFFEE7E7
:1007B00002E008C8121F08C1002AFAD1704770472A
:1007C000002001E001C1121F002AFBD17047000088
:1007D000FFF774FE11E04FF400510848FFF711FFD6
:1007E0004FF4FA70FFF752FE4FF400510348FFF741
:1007F00006FF4FF4FA70FFF749FEECE700100140E6
:10080000200800080000002004000000B0070008D5
:10081000240800080400002004040000C0070008A9
:0408200000000000D4
:0400000508000105E9
:00000001FF
