:020000040800F2
:100000000804002005010008A9020008A102000858
:10001000A50200084D010008570600080000000076
:100020000000000000000000000000008103000844
:1000300051010008000000003D0300086D040008A5
:100040001F0100081F0100081F0100081F01000810
:100050001F0100081F0100081F0100081F01000800
:100060001F0100081F0100081F0100081F010008F0
:100070001F0100081F0100081F0100081F010008E0
:100080001F0100081F0100081F0100081F010008D0
:100090001F0100081F0100081F0100081F010008C0
:1000A0001F0100081F0100081F0100081F010008B0
:1000B000D10400081F0100081F0100081F010008EB
:1000C0001F0100081F0100081F0100081F01000890
:1000D0001F0100081F0100081F0100081F01000880
:1000E0001F0100081F0100081F010008DFF810D0E1
:1000F00000F01AF80048004779060008AFF30080C6
:10010000080400200648804706480047FEE7FEE74F
:10011000FEE7FEE7FEE7FEE7FEE7FEE7FEE7FEE7B7
:1001200071040008ED000008064C074D06E0E06889
:1001300040F0010394E8070098471034AC42F6D32E
:10014000FFF7D8FF88060008A806000800BFFEE7F2
:100150007047000008B510208DF803004002ADF88C
:10016000000003208DF802000121102000F0F8F8B3
:100170006946024800F004F808BD00000010014084
:100180002DE9F0410246002500260020002300242E
:10019000002791F803C00CF00F0591F803C00CF094
:1001A000100CBCF1000F03D091F802C04CEA050519
:1001B00091F800C0BCF1000F31D0146800202BE092
:1001C0004FF0010C0CFA00F3B1F800C00CEA030682
:1001D0009E4220D183004FF00F0C0CFA03F7BC4372
:1001E00005FA03FC4CEA040491F803C0BCF1280FA3
:1001F00006D14FF0010C0CFA00FCC2F814C00AE062
:1002000091F803C0BCF1480F05D14FF0010C0CFA76
:1002100000FCC2F810C0401C0828D1D31460B1F80B
:1002200000C0BCF1FF0F34DD546800202EE000F167
:10023000080C4FF0010808FA0CF3B1F800C00CEA02
:1002400003069E4221D183004FF00F0C0CFA03F7F6
:10025000BC4305FA03FC4CEA040491F803C0BCF16A
:10026000280F05D100F1080C08FA0CF8C2F8148028
:1002700091F803C0BCF1480F07D100F1080C4FF012
:10028000010808FA0CF8C2F81080401C0828CED3E8
:100290005460BDE8F0810AB1016100E0416170473E
:1002A00000BFFEE700BFFEE7704708B51C208DF8D1
:1002B000000000208DF8010001208DF802008DF86B
:1002C0000300684600F002F808BD000070B5002188
:1002D00000230F22C47804B3154C246804F4E064AE
:1002E000C4F5E064210AC1F10403CA40447804FA69
:1002F00003F184781440214309010E4C0678A1557E
:10030000047804F01F050124AC4005786D11AD00A0
:1003100005F1E025C5F8004109E0047804F01F0567
:100320000124AC40044D0678761145F8264070BD96
:100330000CED00E000E400E080E100E07047000028
:1003400029B1064AD2690243044BDA6104E0034A48
:10035000D2698243014BDA6170470000001002400D
:1003600029B1064A92690243044B9A6104E0034AA8
:1003700092698243014B9A6170470000001002406D
:10038000704710B500F002F810BD00000CB5002059
:10039000019000903348006840F480303149086093
:1003A00000BF3048006800F4003000900198401C05
:1003B0000190009818B90198B0F5A06FF1D12948C3
:1003C000006800F4003010B10120009001E000202E
:1003D00000900098012843D12348006840F01000A5
:1003E000214908600846006820F0030008600846BC
:1003F000006840F0020008601A48406819494860E7
:100400000846406848600846406840F4806048609C
:100410000846406820F47C1048600846406840F474
:10042000E81048600846006840F08070086000BF2F
:100430000C48006800F000700028F9D009484068B6
:1004400020F00300074948600846406840F0020079
:10045000486000BF0348406800F00C000828F9D14C
:100460000CBD000000100240002002407047000058
:1004700010B51348006840F00100114908600846B3
:100480004068104908400E494860084600680E4917
:1004900008400B4908600846006820F48020086086
:1004A0000846406820F4FE0048604FF41F00886052
:1004B000FFF767FF4FF000600449086010BD0000BF
:1004C000001002400000FFF8FFFFF6FE08ED00E01C
:1004D00010B50121880700F02EF8C0B10C48007853
:1004E00040B9012251030B48FFF7D5FE012008490E
:1004F000087008E000224FF400510648FFF7CBFED9
:100500000020034908700121880700F005F810BD9C
:100510000000002000100140CA430282704721B150
:10052000028842F00102028004E002884FF6FE7366
:100530001A400280704730B5024600200023002494
:10054000158A05EA0103958905EA010413B10CB186
:10055000012000E0002030BD1AB183890B43838164
:1005600002E083898B438381704700000022028868
:100570001D4B98420ED01D4B98420BD0B0F1804FCE
:1005800008D01B4B984205D01A4B984202D01A4B08
:10059000984204D14FF68F731A404B881A43174B79
:1005A000984207D0164B984204D04FF6FF431A40AA
:1005B000CB881A4302808B8883850B8803850A4B7E
:1005C00098420BD0094B984208D00E4B984205D068
:1005D0000D4B984202D00D4B984201D10B7A038605
:1005E0000123838270470000002C01400034014049
:1005F0000004004000080040000C004000100040D3
:100600000014004000400140004401400048014007
:100610000EB501210846FFF793FE0020ADF8020059
:1006200041F28730ADF8040041F61F40ADF80000FC
:1006300069464FF08040FFF799FF01218807FFF7D7
:100640006BFF012211469007FFF786FF0121880703
:10065000FFF765FF0EBD00BFFEE702E008C8121FEE
:1006600008C1002AFAD170477047002001E001C19B
:10067000121F002AFBD17047FFF76CFDFFF7C8FF80
:10068000FFF713FE00BFFEE7A806000800000020E9
:10069000040000005A060008AC0600080400002010
:0C06A000040400006A06000800000000CE
:0400000508000105E9
:00000001FF
