:020000040800F2
:100000001805002005010008A30300089B03000851
:100010009F030008C1010008E50A00080000000075
:10002000000000000000000000000000D9060008E9
:10003000C5010008000000001D0400084508000874
:100040001F0100081F0100081F0100081F01000810
:100050001F0100081F010008C70100081F01000858
:100060001F0100081F0100081F0100081F010008F0
:100070001F0100081F0100081F0100081F010008E0
:100080001F0100081F0100081F0100081F010008D0
:100090001F0100081F0100081F0100081F010008C0
:1000A0001F0100081F0100081F0100081F010008B0
:1000B0001F0100081F0100081F0100081F010008A0
:1000C0001F0100081F0100081F0100081F01000890
:1000D0001F0100081F0100081F0100081F01000880
:1000E0001F0100081F0100081F010008DFF810D0E1
:1000F00000F038F800480047910C0008AFF300808A
:10010000180500200648804706480047FEE7FEE73E
:10011000FEE7FEE7FEE7FEE7FEE7FEE7FEE7FEE7B7
:1001200049080008ED000008421C10F8011B0029D6
:10013000FBD1801A704730B50B46014600202022C3
:10014000012409E021FA02F59D4205D303FA02F5E4
:10015000491B04FA02F52844151EA2F10102F1DC44
:1001600030BD0000064C074D06E0E06840F001039A
:1001700094E8070098471034AC42F6D3FFF7BAFF73
:10018000A00D0008C00D000808B501460020009031
:10019000034800900098084400900098008808BD2B
:1001A000006C004008B500220092044A0092009AB8
:1001B00002440092009A116008BD0000006C0040EB
:1001C00000BFFEE7704710B5012000F00BF810B13A
:1001D000012000F001F810BD0149086070470000DF
:1001E00014040140014600200022074B1B6803EA6B
:1001F0000102054B14331B680B4013B10AB10120F7
:1002000000E0002070470000000401400549096833
:1002100021F01001034A1160114609680143116081
:10022000704700000020024001460020034A106889
:1002300000F03800084310607047000000200240C2
:1002400008B50121052000F0FBF84FF48060ADF8FF
:10025000000004208DF803006946094800F012F8F8
:100260004FF40070ADF8000003208DF80200182054
:100270008DF803006946024800F004F808BD00004C
:10028000000801402DE9F04102460025002600202B
:1002900000230024002791F803C00CF00F0591F80B
:1002A00003C00CF0100CBCF1000F03D091F802C099
:1002B0004CEA050591F800C0BCF1000F31D014687C
:1002C00000202BE04FF0010C0CFA00F3B1F800C055
:1002D0000CEA03069E4220D183004FF00F0C0CFA6B
:1002E00003F7BC4305FA03FC4CEA040491F803C08D
:1002F000BCF1280F06D14FF0010C0CFA00FCC2F83B
:1003000014C00AE091F803C0BCF1480F05D14FF0CA
:10031000010C0CFA00FCC2F810C0401C0828D1D314
:100320001460B1F800C0BCF1FF0F34DD5468002048
:100330002EE000F1080C4FF0010808FA0CF3B1F8B8
:1003400000C00CEA03069E4221D183004FF00F0C3F
:100350000CFA03F7BC4305FA03FC4CEA040491F8D9
:1003600003C0BCF1280F05D100F1080C08FA0CF805
:10037000C2F8148091F803C0BCF1480F07D100F116
:10038000080C4FF0010808FA0CF8C2F81080401C65
:100390000828CED35460BDE8F08100BFFEE700BF5F
:1003A000FEE77047014908627047000000000E42F6
:1003B0000349096841EA8001014A11607047000061
:1003C000007000400A48006840F0040008490860D6
:1003D0000846006840F0020008600648006840F0E7
:1003E00004000449086000BF00BF30BF7047000030
:1003F0000070004010ED00E001460020034A526802
:100400000A400AB1012000E000207047007000405F
:100410000149086070470000A0000E4270470000CC
:1004200029B1064AD2690243044BDA6104E0034A67
:10043000D2698243014BDA6170470000001002402C
:1004400029B1064A92690243044B9A6104E0034AC7
:1004500092698243014B9A6170470000001002408C
:100460000F48006840F001000D49086008464068E8
:100470000C4908400A494860084600680A49084093
:10048000074908600846006820F480200860084694
:10049000406820F4FE0048604FF41F0088607047F9
:1004A000001002400000FFF8FFFFF6FE30B500210B
:1004B0000022002400232D4D6D6805F00C0121B1B0
:1004C000042905D0082923D105E0294D056022E043
:1004D000274D05601FE0254D6D6805F47012234D12
:1004E0006D6805F48034022505EB92421CB9214D5C
:1004F000554305600BE01D4D6D6805F400351DB1D9
:100500001C4D5543056002E0194D5543056002E05E
:10051000174D056000BF00BF144D6D6805F0F00178
:100520000909154D6B5C0568DD4045600F4D6D6830
:1005300005F4E061090A104D6B5C4568DD4085609B
:100540000A4D6D6805F46051C90A0B4D6B5C456836
:10055000DD40C560054D6D6805F44041890B074DD0
:100560006B5CC568B5FBF3F5056130BD001002405A
:1005700000127A0000093D00000000201000002059
:1005800010B501460022002300204A11012A02D1A1
:10059000094C236806E0022A02D1074C236A01E0D5
:1005A000054C636A01F01F02012494401C400CB109
:1005B000012000E0002010BD001002400248406809
:1005C00000F00C00704700000010024001460020BF
:1005D000034A506820F0F000084350607047000064
:1005E000001002401149096821F480310F4A11605E
:1005F0001146096821F480211160B0F5803F03D0D5
:10060000B0F5802F0ED106E00849096841F4803129
:10061000064A116007E00549096841F4A021034A30
:10062000116000E000BF00BF7047000000100240F2
:1006300001460020034A506820F4E06008435060FF
:10064000704700000010024001460020034A506835
:1006500020F4605040EAC100506070470010024032
:10066000014908667047000000004242024600202F
:10067000044B586820F47C1042EA01031843014BF4
:10068000586070470010024001460020034A50683D
:1006900020F0030008435060704700000010024043
:1006A00038B5002000900024002500BF3120FFF75E
:1006B00067FF05460098401C00900098B0F5A06FB9
:1006C00001D0002DF2D03120FFF75AFF08B10124EC
:1006D00000E00024204638BD704710B500F006F851
:1006E00010BD10B500F072F810BD00000CB5002070
:1006F000019000903348006840F480303149086030
:1007000000BF3048006800F4003000900198401CA1
:100710000190009818B90198B0F5A06FF1D129485F
:10072000006800F4003010B10120009001E00020CA
:1007300000900098012843D12348006840F0100041
:10074000214908600846006820F003000860084658
:10075000006840F0020008601A4840681949486083
:100760000846406848600846406840F48060486039
:100770000846406820F47C1048600846406840F411
:10078000E81048600846006840F08070086000BFCC
:100790000C48006800F000700028F9D00948406853
:1007A00020F00300074948600846406840F0020016
:1007B000486000BF0348406800F00C000828F9D1E9
:1007C0000CBD0000001002400020024010B5FFF7F1
:1007D00047FE4FF48030FFF705FFFFF761FF184930
:1007E000087008460078012827D11020FFF70EFD79
:1007F0000220FFF719FD0020FFF7E8FE0020FFF7B9
:1008000023FF4FF48060FFF713FF4FF4E0114FF424
:100810008030FFF72BFF0120FFF722FF00BF3920B8
:10082000FFF7AEFE0028FAD00220FFF72DFF00BF31
:10083000FFF7C4FE0828FBD101E000BFFEE710BDB2
:10084000140000207047000010B51348006840F005
:1008500001001149086008464068104908400E49E7
:100860004860084600680E4908400B490860084681
:10087000006820F4802008600846406820F4FE00EC
:1008800048604FF41F008860FFF727FF4FF00060BB
:100890000449086010BD0000001002400000FFF88D
:1008A000FFFFF6FE08ED00E01FB501218803FFF70A
:1008B000C7FD4FF4165000900020ADF80400ADF8CD
:1008C0000600ADF80800ADF80C000C20ADF80A00E9
:1008D0006946174800F07AF82021154800F02EF8F4
:1008E000012240F22551124800F04AF82520052146
:1008F000002807DA0A07140E0E4A00F00F031B1F28
:10090000D45403E00A07130E0B4A135400BF2520EA
:1009100000F01F02012191404209920002F1E02201
:10092000C2F8001100BF0121014800F010F81FBDFE
:100930000038014018ED00E000E400E001F400722E
:10094000B2F5007F00D100BFCA430280704721B1D9
:10095000828942F40052828104E082894DF6FF735D
:100960001A408281704702460020B1F5007F00D115
:1009700000BF13880B400BB1012000E0002070473E
:10098000F0B50346002400260025002040F66A1733
:10099000B94200D100BF1846C1F3421401F01F064E
:1009A000012707FA06F5012C01D10C3004E0022CD6
:1009B00001D1103000E014301AB107682F430760EE
:1009C00002E00768AF430760F0BD00002DE9F04783
:1009D00086B005460E460024A24600BFA146002769
:1009E000B08900B100BF2F462C8A4CF6FF7004403E
:1009F000F08804432C82AC894EF6F3100440B08892
:100A000031890843718908430443AC81AC8A4FF6AD
:100A1000FF400440B0890443AC8201A8FFF746FDC3
:100A20001F48874202D1DDF810A001E0DDF80CA0DC
:100A3000A88900F4004040B10AEBCA0000EB0A109C
:100A400031684900B0FBF1F807E00AEBCA0000EB9F
:100A50000A1031688900B0FBF1F86420B8FBF0F0AF
:100A600004012009642101FB1089A88900F40040D9
:100A700040B1322000EBC900B0FBF1F000F00700FC
:100A8000044308E0322000EB09106421B0FBF1F0D0
:100A900000F00F0004432C8106B0BDE8F087000091
:100AA0000038014070B504460D4600BF8021204645
:100AB000FFF759FF0028F9D02946204600F00EF82C
:100AC00070BD70B505460C4604E021782846FFF756
:100AD000E9FF641C20780028F7D170BDC1F308023B
:100AE0008280704700BFFEE70FB4084B10B504A921
:100AF00002AA039800F01CF8044602A9002000F0A6
:100B0000C1F8204610BC5DF814FB0000850C0008FD
:100B100002E008C8121F08C1002AFAD170477047C6
:100B2000002001E001C1121F002AFBD17047000024
:100B30002DE9FF4F89B09B460446002506E0252895
:100B40000BD05A460B999047641C6D1C20780028E6
:100B5000F5D10DB02846BDE8F08F0027B846012238
:100B6000474900E0074314F8013F203B02FA03F035
:100B70000842F7D120782E2819D114F8010F47F038
:100B800004072A280ED06FF02F022078A0F1300140
:100B900009290CD808EB880102EB410100EB0108A0
:100BA000641CF2E70A98641C50F8048B0A902078C1
:100BB0000028CED0642808D0692806D075281ED019
:100BC0005A460B9990476D1C58E00A994FF00A0954
:100BD00001C90A91002802DA40422D2102E03905BC
:100BE00004D52B218DF82010012103E0F90704D052
:100BF0002021F7E78A4608AE0DE00021FAE70A99BE
:100C00004FF00A0901C90A91F7E74946FFF793FA3D
:100C1000303106F8011D0028F7D1ADEB060000F1D8
:100C20002009780701D44FF00108C84502DDA8EB80
:100C3000090000E000208046002706E008A85A4688
:100C4000C05D0B9990476D1C7F1C5745F6DB04E097
:100C500030205A460B9990476D1CB8F10001A8F15D
:100C60000108F5DC05E016F8010B5A460B99904790
:100C70006D1CB9F10001A9F10109F4DC641C65E700
:100C8000092801000A68531C0B60107070470000AF
:100C90000024FFF7D5FAFFF707FE01214FF0C050FF
:100CA000FFF7BEFB0120FFF7B3FB0120FFF77AFB44
:100CB0000220FFF7A1FBC0B10220FFF779FB012062
:100CC000FFF776FBFFF70DFD10A11748FFF7F9FEC0
:100CD0000420FFF759FA0446224614A11948FFF7E9
:100CE00003FF184800F044F80DE064210420FFF7EA
:100CF00059FA15A10C48FFF7E4FE19A10A48FFF7BD
:100D0000E0FEFFF75FFB00BFFEE70000576F6B657B
:100D10002075702066726F6D205374616E64627905
:100D2000204D6F64650D0A0000380140424B505F52
:100D30004452312061667465722069732025690D03
:100D40000A00000018000020424B505F445231203E
:100D50006265666F7265206973203130300D0A005C
:100D60005374616E646279204D6F64650D0A0000F2
:100D700070B5054600240BE000BF80210748FFF74F
:100D8000F2FD0128F9D1295D0448FFF7A7FE641C94
:100D90002846FFF7C9F9A042EED870BD00380140DF
:100DA000C00D00080000002018000000100B000813
:100DB000D80D00081800002000050000200B0008D6
:100DC00000000000010203040102030406070809F1
:080DD000020406080000000007
:0400000508000105E9
:00000001FF
