:020000040800F2
:100000004004002005010008A70200089F02000824
:10001000A30200084D010008650800080000000068
:10002000000000000000000000000000950600082D
:1000300051010008000000006103000801080008E9
:100040001F0100081F0100081F0100081F01000810
:100050001F010008850500081F0100081F01000896
:100060001F0100081F0100081F0100081F010008F0
:100070001F0100081F0100081F0100081F010008E0
:100080001F0100081F0100081F0100081F010008D0
:100090001F0100081F0100081F0100081F010008C0
:1000A0001F0100081F0100081F0100081F010008B0
:1000B0001F0100081F0100081F0100081F010008A0
:1000C0001F0100081F0100081F0100081F01000890
:1000D0001F0100081F0100081F0100081F01000880
:1000E0001F0100081F0100081F010008DFF810D0E1
:1000F00000F01AF80048004789080008AFF30080B4
:10010000400400200648804706480047FEE7FEE717
:10011000FEE7FEE7FEE7FEE7FEE7FEE7FEE7FEE7B7
:1001200005080008ED000008064C074D06E0E068F1
:1001300040F0010394E8070098471034AC42F6D32E
:10014000FFF7D8FF000900082009000800BFFEE7FC
:10015000704700000549096821F01001034A116049
:1001600011460968014311607047000000200240F9
:1001700001460020034A106800F038000843106070
:1001800070470000002002402DE9F04102460025A2
:100190000026002000230024002791F803C00CF063
:1001A0000F0591F803C00CF0100CBCF1000F03D048
:1001B00091F802C04CEA050591F800C0BCF1000FAF
:1001C00031D0146800202BE04FF0010C0CFA00F342
:1001D000B1F800C00CEA03069E4220D183004FF024
:1001E0000F0C0CFA03F7BC4305FA03FC4CEA0404B9
:1001F00091F803C0BCF1280F06D14FF0010C0CFAA6
:1002000000FCC2F814C00AE091F803C0BCF1480F2A
:1002100005D14FF0010C0CFA00FCC2F810C0401CD4
:100220000828D1D31460B1F800C0BCF1FF0F34DD51
:10023000546800202EE000F1080C4FF0010808FA85
:100240000CF3B1F800C00CEA03069E4221D18300F2
:100250004FF00F0C0CFA03F7BC4305FA03FC4CEA11
:10026000040491F803C0BCF1280F05D100F1080C7B
:1002700008FA0CF8C2F8148091F803C0BCF1480FDA
:1002800007D100F1080C4FF0010808FA0CF8C2F889
:100290001080401C0828CED35460BDE8F08100BF18
:1002A000FEE700BFFEE710B5802000F025F970B131
:1002B0004FF4803000F040F90121082000F080F96F
:1002C0000121102000F07CF9802000F05BF810BDC7
:1002D00008B505208DF8000000208DF801008DF88C
:1002E000020001208DF80300684600F001F808BD07
:1002F00070B5002100230F22C47804B3154C246884
:1003000004F4E064C4F5E064210AC1F10403CA40C6
:10031000447804FA03F184781440214309010E4C17
:100320000678A155047804F01F050124AC40057837
:100330006D11AD0005F1E025C5F8004109E0047834
:1003400004F01F050124AC40044D0678761145F8F1
:10035000264070BD0CED00E000E400E080E100E02C
:100360007047000029B1064A92690243044B9A6122
:1003700004E0034A92698243014B9A61704700008E
:1003800000100240014988727047000000100240CE
:100390000149C86470470000000042420F480068ED
:1003A00040F001000D490860084640680C490840CB
:1003B0000A494860084600680A4908400749086039
:1003C0000846006820F4802008600846406820F451
:1003D000FE0048604FF41F00886070470010024024
:1003E0000000FFF8FFFFF6FE30B5002100220024D8
:1003F00000232D4D6D6805F00C0121B1042905D0B5
:10040000082923D105E0294D056022E0274D05602C
:100410001FE0254D6D6805F47012234D6D6805F4DD
:100420008034022505EB92421CB9214D55430560ED
:100430000BE01D4D6D6805F400351DB11C4D554395
:10044000056002E0194D5543056002E0174D056057
:1004500000BF00BF144D6D6805F0F0010909154D8E
:100460006B5C0568DD4045600F4D6D6805F4E0612B
:10047000090A104D6B5C4568DD4085600A4D6D686A
:1004800005F46051C90A0B4D6B5C4568DD40C560E1
:10049000054D6D6805F44041890B074D6B5CC568DF
:1004A000B5FBF3F5056130BD0010024000127A0083
:1004B00000093D00140000202400002010B5014672
:1004C0000022002300204A11012A02D1094C23688E
:1004D00006E0022A02D1074C236A01E0054C636A58
:1004E00001F01F02012494401C400CB1012000E0E7
:1004F000002010BD0010024001460020034A92680F
:100500000A400AB1012000E00020704700100240BC
:100510000248406800F00C007047000000100240E4
:1005200001460020034A506820F0F0000843506064
:1005300070470000001002401149096821F4803121
:100540000F4A11601146096821F480211160B0F54D
:10055000803F03D0B0F5802F0ED106E0084909682E
:1005600041F48031064A116007E00549096841F409
:10057000A021034A116000E000BF00BF70470000E7
:100580000010024010B50820FFF7B6FF48B1082060
:10059000FFF7F8FE3120FFF791FF10B1012000F0C6
:1005A0003DF81020FFF7A8FF48B11020FFF7EAFE42
:1005B0003920FFF783FF10B1022000F043F810BD8F
:1005C00029B1064A527A0243044B5A7204E0034AA4
:1005D000527A8243014B5A72704700000010024069
:1005E0000149C87170470000001002400146002018
:1005F000034A506820F4E0600843506070470000F0
:100600000010024001460020034A506820F4605068
:1006100040EAC1005060704700100240014908667E
:10062000704700000000424202460020044B586818
:1006300020F47C1042EA01031843014B58607047D4
:100640000010024001460020034A506820F00300D9
:1006500008435060704700000010024038B5002089
:1006600000900024002500BF3120FFF727FF05463A
:100670000098401C00900098B0F5A06F01D0002DAC
:10068000F2D03120FFF71AFF08B1012400E0002466
:10069000204638BD704710B500F006F810BD10B503
:1006A00000F072F810BD00000CB500200190009021
:1006B0003348006840F480303149086000BF30485A
:1006C000006800F4003000900198401C01900098F0
:1006D00018B90198B0F5A06FF1D12948006800F46D
:1006E000003010B10120009001E00020009000983F
:1006F000012843D12348006840F0100021490860D8
:100700000846006820F0030008600846006840F0D2
:10071000020008601A484068194948600846406865
:1007200048600846406840F4806048600846406879
:1007300020F47C1048600846406840F4E8104860A7
:100740000846006840F08070086000BF0C480068F0
:1007500000F000700028F9D00948406820F003003C
:10076000074948600846406840F00200486000BF02
:100770000348406800F00C000828F9D10CBD0000C7
:10078000001002400020024010B5FFF707FE4FF4B2
:100790008030FFF7D1FEFFF761FF18490870084667
:1007A0000078012827D11020FFF7D4FC0220FFF7A2
:1007B000DFFC0020FFF7B4FE0020FFF723FF4FF41B
:1007C0008060FFF713FF4FF4E0114FF48030FFF724
:1007D0002BFF0120FFF722FF00BF3920FFF76EFE3D
:1007E0000028FAD00220FFF72DFF00BFFFF790FE90
:1007F0000828FBD101E000BFFEE710BD2800002063
:100800007047000010B51348006840F0010011491E
:10081000086008464068104908400E49486008468C
:1008200000680E4908400B4908600846006820F43B
:10083000802008600846406820F4FE0048604FF4BD
:100840001F008860FFF727FF4FF000600449086031
:1008500010BD0000001002400000FFF8FFFFF6FE90
:1008600008ED00E000BFFEE702E008C8121F08C163
:10087000002AFAD170477047002001E001C1121F21
:10088000002AFBD170470000FFF709FF1548FFF76A
:10089000ABFD1448006814490860124840681349C9
:1008A000086010488068124908600E48C068114905
:1008B00008600120FFF76CFDFFF70AFD012104200D
:1008C000FFF750FD4FF480700B4908801820C87066
:1008D000032088700948FFF757FC0620FFF780FEC9
:1008E00000BFFEE72C0000200400002008000020CC
:1008F000100000200C000020000000200008014033
:1009000020090008000000202C00000068080008F2
:100910004C0900082C00002014040000780800088E
:1009200000000000000000000000000000000000C7
:1009300000000000000000000102030401020304A3
:0C09400006070809020406080000000079
:0400000508000105E9
:00000001FF
