:020000040800F2
:10000000E805002005010008E7040008DF040008F7
:10001000E30400084D010008550900080000000035
:1000200000000000000000000000000001060008C1
:100030008103000800000000E9040008ED06000844
:100040001F0100081F0100081F0100081F01000810
:100050001F0100081F0100081F0100081F01000800
:100060001F0100081F0100081F0100081F010008F0
:100070001F0100081F0100081F0100081F010008E0
:100080001F0100081F0100081F0100081F010008D0
:100090001F0100081F0100081F0100081F010008C0
:1000A0001F0100081F0100081F0100081F010008B0
:1000B0001F0100081F0100081F0100081F010008A0
:1000C0001F0100081F0100081F0100081F01000890
:1000D0001F0100081F0100081F0100081F01000880
:1000E0001F0100081F0100081F010008DFF810D0E1
:1000F00000F01AF800480047CD090008AFF300806F
:10010000E80500200648804706480047FEE7FEE76E
:10011000FEE7FEE7FEE7FEE7FEE7FEE7FEE7FEE7B7
:10012000F1060008ED000008064C074D06E0E06807
:1001300040F0010394E8070098471034AC42F6D32E
:10014000FFF7D8FF080C0008280C000800BFFEE7E6
:1001500010B502460B46002100BF04E052F8210012
:10016000034C2060491C9942F8D30148006810BD37
:100170000030024001200149886070470030024091
:1001800021B1026842F00102026004E002684FF609
:10019000FE731A400260704700B58BB0012108461B
:1001A00000F0A4F9114800F027F811480090114818
:1001B0000190002002907220039040200490802043
:1001C00005908000069080000790002008904FF472
:1001D0000050099040000A906946044800F0B2F8C7
:1001E00001210248FFF7CCFF0BB000BD6C000240BC
:1001F000400A00082000002001684FF6FE721140FE
:1002000001600021016041608160C1604B4988420A
:1002100008D14A490839496841F00F01474A083A6C
:1002200051608AE045491431884208D14349083970
:10023000496841F0F001414A083A51607DE03F4988
:100240002831884208D13D490839496841F4706134
:100250003A4A083A516070E038493C31884208D146
:1002600036490839496841F47041344A083A5160C6
:1002700063E032495031884208D130490839496831
:1002800041F470212D4A083A516056E02B496431FF
:10029000884208D129490839496841F47001274A40
:1002A000083A516049E025497831884208D123490C
:1002B0000839496841F07061204A083A51603CE0D1
:1002C0001F49884206D1011F096841F00F01021F32
:1002D000116032E01A491431884208D11849091FC7
:1002E000096841F0F001164A121F116025E0144917
:1002F0002831884208D11249091F096841F4706108
:100300000F4A121F116018E00D493C31884208D194
:100310000B49091F096841F47041094A121F116015
:100320000BE007495031884207D10549091F096888
:1003300041F47021024A121F116070470800024008
:100340000804024010B50022026847F6F0739A4391
:100350000C6A8B6823430C6923434C6923438C69E3
:100360002343CC6923434C6A23438C6A23431A43B7
:100370000260CB6843600B6883604B68C36010BD4C
:100380007047000008B50121052000F0BFF84FF4C8
:100390008060ADF8000004208DF80300694609482C
:1003A00000F012F84FF40070ADF8000003208DF853
:1003B000020018208DF803006946024800F004F896
:1003C00008BD0000000801402DE9F041024600256B
:1003D0000026002000230024002791F803C00CF021
:1003E0000F0591F803C00CF0100CBCF1000F03D006
:1003F00091F802C04CEA050591F800C0BCF1000F6D
:1004000031D0146800202BE04FF0010C0CFA00F3FF
:10041000B1F800C00CEA03069E4220D183004FF0E1
:100420000F0C0CFA03F7BC4305FA03FC4CEA040476
:1004300091F803C0BCF1280F06D14FF0010C0CFA63
:1004400000FCC2F814C00AE091F803C0BCF1480FE8
:1004500005D14FF0010C0CFA00FCC2F810C0401C92
:100460000828D1D31460B1F800C0BCF1FF0F34DD0F
:10047000546800202EE000F1080C4FF0010808FA43
:100480000CF3B1F800C00CEA03069E4221D18300B0
:100490004FF00F0C0CFA03F7BC4305FA03FC4CEACF
:1004A000040491F803C0BCF1280F05D100F1080C39
:1004B00008FA0CF8C2F8148091F803C0BCF1480F98
:1004C00007D100F1080C4FF0010808FA0CF8C2F847
:1004D0001080401C0828CED35460BDE8F08100BFD6
:1004E000FEE700BFFEE770477047000029B1064AEB
:1004F00052690243044B5A6104E0034A5269824341
:10050000014B5A61704700000010024029B1064AB1
:1005100092690243044B9A6104E0034A9269824360
:10052000014B9A61704700000010024030B5002175
:100530000022002400232D4D6D6805F00C0121B12F
:10054000042905D0082923D105E0294D056022E0C2
:10055000274D05601FE0254D6D6805F47012234D91
:100560006D6805F48034022505EB92421CB9214DDB
:10057000554305600BE01D4D6D6805F400351DB158
:100580001C4D5543056002E0194D5543056002E0DE
:10059000174D056000BF00BF144D6D6805F0F001F8
:1005A0000909154D6B5C0568DD4045600F4D6D68B0
:1005B00005F4E061090A104D6B5C4568DD4085601B
:1005C0000A4D6D6805F46051C90A0B4D6B5C4568B6
:1005D000DD40C560054D6D6805F44041890B074D50
:1005E0006B5CC568B5FBF3F5056130BD00100240DA
:1005F00000127A0000093D000800002018000020C9
:10060000704710B500F002F810BD00000CB50020D6
:10061000019000903348006840F480303149086010
:1006200000BF3048006800F4003000900198401C82
:100630000190009818B90198B0F5A06FF1D1294840
:10064000006800F4003010B10120009001E00020AB
:1006500000900098012843D12348006840F0100022
:10066000214908600846006820F003000860084639
:10067000006840F0020008601A4840681949486064
:100680000846406848600846406840F4806048601A
:100690000846406820F47C1048600846406840F4F2
:1006A000E81048600846006840F08070086000BFAD
:1006B0000C48006800F000700028F9D00948406834
:1006C00020F00300074948600846406840F00200F7
:1006D000486000BF0348406800F00C000828F9D1CA
:1006E0000CBD0000001002400020024070470000D6
:1006F00010B51348006840F0010011490860084631
:100700004068104908400E494860084600680E4994
:1007100008400B4908600846006820F48020086003
:100720000846406820F4FE0048604FF41F008860CF
:10073000FFF767FF4FF000600449086010BD00003C
:10074000001002400000FFF8FFFFF6FE08ED00E099
:100750001FB501218803FFF7D9FE4FF41650009012
:100760000020ADF80400ADF80600ADF80800ADF8C3
:100770000C000C20ADF80A006946174800F07AF822
:100780002021154800F02EF8012240F22551124890
:1007900000F04AF825200521002807DA0A07140E80
:1007A0000E4A00F00F031B1FD45403E00A07130E78
:1007B0000B4A135400BF252000F01F020121914075
:1007C0004209920002F1E022C2F8001100BF0121AB
:1007D000014800F010F81FBD0038014018ED00E09E
:1007E00000E400E001F40072B2F5007F00D100BF28
:1007F000CA430280704721B1828942F4005282814B
:1008000004E082894DF6FF731A40828170470246E8
:100810000020B1F5007F00D100BF13880B400BB161
:10082000012000E000207047F0B5034600240026B8
:100830000025002040F66A17B94200D100BF1846D3
:10084000C1F3421401F01F06012707FA06F5012C37
:1008500001D10C3004E0022C01D1103000E0143042
:100860001AB107682F43076002E00768AF430760CB
:10087000F0BD00002DE9F04786B005460E46002485
:10088000A24600BFA1460027B08900B100BF2F4695
:100890002C8A4CF6FF700440F08804432C82AC890B
:1008A0004EF6F3100440B08831890843718908433B
:1008B0000443AC81AC8A4FF6FF400440B089044346
:1008C000AC8201A8FFF732FE1F48874202D1DDF853
:1008D00010A001E0DDF80CA0A88900F4004040B1B0
:1008E0000AEBCA0000EB0A1031684900B0FBF1F8CE
:1008F00007E00AEBCA0000EB0A1031688900B0FB80
:10090000F1F86420B8FBF0F004012009642101FB38
:100910001089A88900F4004040B1322000EBC900E2
:10092000B0FBF1F000F00700044308E0322000EBD8
:1009300009106421B0FBF1F000F00F0004432C819A
:1009400006B0BDE8F087000000380140C1F308029E
:100950008280704700BFFEE7014A024900F013B8E9
:10096000A90900081C00002002E008C8121F08C1E5
:10097000002AFAD170477047002001E001C1121F20
:10098000002AFBD170472DE9F04116460F46044678
:10099000002503E03946B047641C6D1C2078002810
:1009A000F8D12846BDE8F08170B504460D46E1B2A5
:1009B0000548FFF7CBFF00BF40210348FFF727FFA3
:1009C0000028F9D0204670BD00380140FFF7E4FB55
:1009D000FFF7D8FCFFF7BCFE01214020FFF786FDA2
:1009E00072210B48FFF7B4FB0A490860FFF7C2FB0E
:1009F00072210948FFF7ACFB084908600548006808
:100A00000968884202D106A0FFF7A6FF00BFFEE7F3
:100A1000400A000800000020200000200400002000
:100A20000D52656365697665644275666665722018
:100A30003D20446174614275666665720D0A00006E
:100A40002110000063304220A5508440E770C6604A
:100A50004AA129918CC16BB1CEE1ADD13112EFF138
:100A6000522273329442B552D662F7721883399388
:100A7000BDD35AA3FFF39CC36224DEE320044334B6
:100A8000C774E6648554A4444BB56AA509952885C6
:100A9000ACC5CFF553368DD511167226D7763006F4
:100AA000B44695567AA75BB738871997FEE7DFF704
:100AB000C448BCC78668E5584008A7780228611872
:100AC000EDD9CCC9AFF98EE9699948892BB90AA942
:100AD000B77AD44A711A966A333A500AFDDB122A61
:100AE0009EEBBFFB588B799B1AAB3BBB877CA66CFC
:100AF000222CC55C600C033CAEED411CECCD8FFD9F
:100B00000BBD2AAD499D688DB66E977EF44ED55EBD
:100B1000511E322E9FFF700EDDDFBEEF1BBFFCCFDC
:100B2000788F599FA9818891EBA1CAB12DC10CD1B1
:100B300080106FE1C230A1000450E32046702540D0
:100B40009893B983DAB3FBA31CD33DC35EF37FE371
:100B5000F32290123542D23277621452EAB55672BD
:100B60008985A8954FE56EF50DC52CD5C324E234D3
:100B70006674810424544764DBA705449987FAB757
:100B80007EF75FE73CD71DC7F236D326B016910635
:100B9000154676764CD934560EF96DC9C8992FE9A9
:100BA000ABA98AB96548445827680678E108C01897
:100BB0007DCBA3283FEB5CDBF98B1EFBBBABD89B4B
:100BC000545A754A167A376AD01AF10A923AB32AF9
:100BD0006CDD0FEDAABD4DCDE89D8BAD267CC98D9A
:100BE000454C645C832CA23CC10CE01C3EFF1FEF13
:100BF0009BAF7CDFD98FBABF176EF89F554E367EFC
:100C0000B23E932EF01ED10E280C000800000020EA
:100C10002000000068090008480C0008200000209F
:100C2000C80500007809000800000000000000006E
:100C30000000000001020304010203040607080982
:080C4000020406080000000098
:0400000508000105E9
:00000001FF
