:020000040800F2
:1000000028040020050100085D05000855050008CA
:1000100059050008ED0100088D0A000800000000E5
:10002000000000000000000000000000750600084D
:100030003D030008000000005F050008610700089C
:100040001F0100081F0100081F0100081F01000810
:100050001F0100081F0100081F0100081F01000800
:100060001F0100081F0100081F0100081F010008F0
:100070001F0100081F0100081F0100081F010008E0
:100080001F0100081F0100081F0100081F010008D0
:100090001F0100081F0100081F0100081F010008C0
:1000A0001F0100081F0100081F0100081F010008B0
:1000B0001F0100081F0100081F0100081F010008A0
:1000C0001F0100081F0100081F0100081F01000890
:1000D0001F0100081F0100081F0100081F01000880
:1000E0001F0100081F0100081F010008DFF810D0E1
:1000F00000F06AF800480047B10A0008AFF300803A
:10010000280400200648804706480047FEE7FEE72F
:10011000FEE7FEE7FEE7FEE7FEE7FEE7FEE7FEE7B7
:1001200065070008ED00000896230022114600F044
:100130001DB820F00040C10DC0F3160040F40000CF
:100140007F2901DA00207047962903DCC1F196016E
:10015000C84070479639884070470029A8BF70474B
:10016000401C490008BF20F00100704710B4B0FAED
:1001700080FC00FA0CF050EA010404BF10BC704788
:1001800049B1CCF1200421FA04F411FA0CF118BFA2
:10019000012121430843A3EB0C01CB1D4FEA006171
:1001A0004FEA102042BF002010BC704700EBC35044
:1001B00010440029A4BF10BC7047401C490008BF70
:1001C00020F0010010BC7047064C074D06E0E068C7
:1001D00040F0010394E8070098471034AC42F6D38E
:1001E000FFF788FF4C0B00086C0B000800BFFEE710
:1001F00010B500F0EBF80024282000F0B4F802213C
:100200000B4800F09AF950B9502000F0ACF80221E8
:10021000074800F092F908B1012400E0002400BF73
:100220000221034800F089F90028F9D1204610BDC9
:100230000008014010B5044600F06CF8FFF7D8FF45
:100240001749087000F038F81649087000F034F8C3
:100250001549087000F030F81449087000F02CF8C7
:100260001349087000F028F8124908800D480078FA
:100270000D49097808440D49097808440C49097862
:1002800008440C490988884209D108480078FFF7DA
:100290004BFF206003480078FFF746FF606010BD09
:1002A000240000201E0000201F000020200000204D
:1002B000210000202200002070B5002423E000BFB0
:1002C0000221134800F039F90028F9D0282000F065
:1002D0004AF802210E4800F030F928B9C4F10701AC
:1002E00001208840854305E0C4F1070101208840D2
:1002F0002843C5B200BF0221054800F01EF90028BE
:10030000F9D1601CC4B2082CD9DB284670BD0000AE
:100310000008014010B500F06FF80221064800F017
:1003200015F9142000F00BF80221034800F010F931
:100330001E2000F018F810BD00080140704710B5ED
:1003400004460DE000214FF0804000F04AFA00BF63
:100350004FF0804000F042FAB0F57A7FF8D3641E87
:10036000002CEFD110BD10B504460CE000214FF079
:10037000804000F036FA00BF4FF0804000F02EFAC7
:100380000028F9D0641E002CF0D110BD08B5012161
:10039000052000F0F5F80820ADF8000004208DF8E5
:1003A00003006946084800F03DF80420ADF800005D
:1003B00003208DF8020018208DF8030069460248DA
:1003C00000F030F808BD00000008014008B54820E2
:1003D0008DF803000220ADF8000003208DF8020024
:1003E0000121042000F0CCF86946024800F01AF818
:1003F00008BD00000008014008B510208DF803007A
:100400000220ADF8000003208DF802000121042035
:1004100000F0B6F86946024800F004F808BD000094
:10042000000801402DE9F041024600250026002089
:1004300000230024002791F803C00CF00F0591F869
:1004400003C00CF0100CBCF1000F03D091F802C0F7
:100450004CEA050591F800C0BCF1000F31D01468DA
:1004600000202BE04FF0010C0CFA00F3B1F800C0B3
:100470000CEA03069E4220D183004FF00F0C0CFAC9
:1004800003F7BC4305FA03FC4CEA040491F803C0EB
:10049000BCF1280F06D14FF0010C0CFA00FCC2F899
:1004A00014C00AE091F803C0BCF1480F05D14FF029
:1004B000010C0CFA00FCC2F810C0401C0828D1D373
:1004C0001460B1F800C0BCF1FF0F34DD54680020A7
:1004D0002EE000F1080C4FF0010808FA0CF3B1F817
:1004E00000C00CEA03069E4221D183004FF00F0C9E
:1004F0000CFA03F7BC4305FA03FC4CEA040491F838
:1005000003C0BCF1280F05D100F1080C08FA0CF863
:10051000C2F8148091F803C0BCF1480F07D100F174
:10052000080C4FF0010808FA0CF8C2F81080401CC3
:100530000828CED35460BDE8F081024600209368BD
:100540000B400BB1012000E0002070474161704773
:100550000161704700BFFEE700BFFEE770477047CC
:1005600029B1064AD2690243044BDA6104E0034A26
:10057000D2698243014BDA617047000000100240EB
:1005800029B1064A92690243044B9A6104E0034A86
:1005900092698243014B9A6170470000001002404B
:1005A00030B500210022002400232D4D6D6805F098
:1005B0000C0121B1042905D0082923D105E0294DDA
:1005C000056022E0274D05601FE0254D6D6805F4AC
:1005D0007012234D6D6805F48034022505EB9242BC
:1005E0001CB9214D554305600BE01D4D6D6805F4A8
:1005F00000351DB11C4D5543056002E0194D5543B2
:10060000056002E0174D056000BF00BF144D6D6826
:1006100005F0F0010909154D6B5C0568DD4045608A
:100620000F4D6D6805F4E061090A104D6B5C45687B
:10063000DD4085600A4D6D6805F46051C90A0B4DB7
:100640006B5C4568DD40C560054D6D6805F4404153
:10065000890B074D6B5CC568B5FBF3F5056130BDD3
:100660000010024000127A0000093D000A0000203C
:100670001A000020704710B500F002F810BD00000D
:100680000CB50020019000903348006840F48030A1
:100690003149086000BF3048006800F40030009025
:1006A0000198401C0190009818B90198B0F5A06F0E
:1006B000F1D12948006800F4003010B10120009009
:1006C00001E0002000900098012843D123480068F1
:1006D00040F01000214908600846006820F003003F
:1006E00008600846006840F0020008601A48406848
:1006F000194948600846406848600846406840F428
:10070000806048600846406820F47C1048600846D5
:10071000406840F4E81048600846006840F0807087
:10072000086000BF0C48006800F000700028F9D095
:100730000948406820F003000749486008464068BF
:1007400040F00200486000BF0348406800F00C0021
:100750000828F9D10CBD0000001002400020024022
:100760007047000010B51348006840F001001149BF
:10077000086008464068104908400E49486008462D
:1007800000680E4908400B4908600846006820F4DC
:10079000802008600846406820F4FE0048604FF45E
:1007A0001F008860FFF767FF4FF000600449086092
:1007B00010BD0000001002400000FFF8FFFFF6FE31
:1007C00008ED00E021B1028842F00102028004E05D
:1007D00002884FF6FE731A40028070470146888CEB
:1007E0007047818470470000002202881D4B9842A8
:1007F0000ED01D4B98420BD0B0F1804F08D01B4B50
:10080000984205D01A4B984202D01A4B984204D114
:100810004FF68F731A404B881A43174B984207D0F4
:10082000164B984204D04FF6FF431A40CB881A4328
:1008300002808B8883850B8803850A4B98420BD0F6
:10084000094B984208D00E4B984205D00D4B984268
:1008500002D00D4B984201D10B7A0386012383828B
:1008600070470000002C01400034014000040040AB
:1008700000080040000C0040001000400014004040
:100880000040014000440140004801400EB50121F4
:100890000846FFF765FE0020ADF802004FF6FF7036
:1008A000ADF804004720ADF8000069464FF08040E5
:1008B000FFF79AFF01218807FFF784FF0EBD0000B4
:1008C0001FB501214804FFF74BFE4FF4165000906E
:1008D0000020ADF80400ADF80600ADF80800ADF852
:1008E0000C000C20ADF80A006946044800F022F81C
:1008F0000121024800F004F81FBD00000044004040
:1009000021B1828942F40052828104E082894DF64D
:10091000FF731A408281704702460020B1F5007FC4
:1009200000D100BF13880B400BB1012000E0002074
:10093000704700002DE9F04786B005460E460024BA
:10094000A24600BFA1460027B08900B100BF2F46D4
:100950002C8A4CF6FF700440F08804432C82AC894A
:100960004EF6F3100440B08831890843718908437A
:100970000443AC81AC8A4FF6FF400440B089044385
:10098000AC8201A8FFF70CFE1F48874202D1DDF8B8
:1009900010A001E0DDF80CA0A88900F4004040B1EF
:1009A0000AEBCA0000EB0A1031684900B0FBF1F80D
:1009B00007E00AEBCA0000EB0A1031688900B0FBBF
:1009C000F1F86420B8FBF0F004012009642101FB78
:1009D0001089A88900F4004040B1322000EBC90022
:1009E000B0FBF1F000F00700044308E0322000EB18
:1009F00009106421B0FBF1F000F00F0004432C81DA
:100A000006B0BDE8F08700000038014070B504462C
:100A10000D4600BF80212046FFF77EFF0028F9D059
:100A20002946204600F02EF870BDFEB506460C465D
:100A3000002500BF0A20B4FBF0F100FB114030306C
:100A4000C2B228466D1C0DF800200A20B4FBF0F459
:100A5000002CEFD106E0681E05461DF80010304658
:100A6000FFF7D4FF002DF6D1FEBD70B505460C464C
:100A700004E021782846FFF7C9FF641C207800288D
:100A8000F7D170BDC1F308028280704700BFFEE756
:100A900002E008C8121F08C1002AFAD17047704747
:100AA000002001E001C1121F002AFBD170470000A5
:100AB000FFF76CFCFFF704FFFFF7E8FE2CE0174898
:100AC000FFF7B8FB15490868FFF733FB14490870B6
:100AD00012494868FFF72DFB1249087012A1164809
:100AE000FFF7C3FF0E4801781348FFF79EFF13A1DD
:100AF0001148FFF7BAFF12A10F48FFF7B6FF0948E8
:100B000001780D48FFF791FF0CA10B48FFF7ADFFEF
:100B100040F2DC50FFF713FCD1E70000000000209A
:100B2000080000200900002054656D706572617432
:100B30007572653A20000000004400400A00000081
:100B400048756D69646974793A2000006C0B00087F
:100B50000000002028000000900A0008940B000804
:100B60002800002000040000A00A00080000000087
:100B70000000000000000000000001020304010268
:100B8000030406070809020406080000000000002C
:040B90000000000061
:0400000508000105E9
:00000001FF
