:020000040800F2
:10000000080400200501000803030008FB020008A3
:10001000FF0200084D01000803090008000000006D
:100020000000000000000000000000003106000891
:100030005101000800000000BD030008A5070008EA
:100040001F0100081F0100081F0100081F01000810
:100050001F0100082D0500081F0100081F010008EE
:100060001F0100081F0100081F0100081F010008F0
:100070001F0100081F0100081F0100081F010008E0
:100080001F0100081F0100081F0100081F010008D0
:100090001F0100081F0100081F0100081F010008C0
:1000A0001F0100081F0100081F0100081F010008B0
:1000B0001F0100081F0100081F0100081F010008A0
:1000C0001F0100081F0100081F0100081F01000890
:1000D0001F0100081F0100081F0100081F01000880
:1000E0001F0100081F0100081F010008DFF810D0E1
:1000F00000F01AF80048004725090008AFF3008017
:10010000080400200648804706480047FEE7FEE74F
:10011000FEE7FEE7FEE7FEE7FEE7FEE7FEE7FEE7B7
:10012000A9070008ED000008064C074D06E0E0684E
:1001300040F0010394E8070098471034AC42F6D32E
:10014000FFF7D8FF5C0900087C09000800BFFEE744
:10015000704710B504460DE000214FF0804000F0DC
:1001600062FB00BF4FF0804000F05AFBB0F57A7F91
:10017000F8D3641E002CEFD110BD000005490968BA
:1001800021F01001034A1160114609680143116012
:10019000704700000020024001460020034A10681A
:1001A00000F0380008431060704700000020024053
:1001B00008B510208DF803004002ADF800000320C0
:1001C0008DF802000121102000F00AF9694602486A
:1001D00000F004F808BD0000001001402DE9F041D6
:1001E000024600250026002000230024002791F865
:1001F00003C00CF00F0591F803C00CF0100CBCF11B
:10020000000F03D091F802C04CEA050591F800C038
:10021000BCF1000F31D0146800202BE04FF0010C2E
:100220000CFA00F3B1F800C00CEA03069E4220D19C
:1002300083004FF00F0C0CFA03F7BC4305FA03FCE4
:100240004CEA040491F803C0BCF1280F06D14FF02A
:10025000010C0CFA00FCC2F814C00AE091F803C0CB
:10026000BCF1480F05D14FF0010C0CFA00FCC2F8AC
:1002700010C0401C0828D1D31460B1F800C0BCF1F4
:10028000FF0F34DD546800202EE000F1080C4FF021
:10029000010808FA0CF3B1F800C00CEA03069E420C
:1002A00021D183004FF00F0C0CFA03F7BC4305FA81
:1002B00003FC4CEA040491F803C0BCF1280F05D1FB
:1002C00000F1080C08FA0CF8C2F8148091F803C089
:1002D000BCF1480F07D100F1080C4FF0010808FAF3
:1002E0000CF8C2F81080401C0828CED35460BDE83A
:1002F000F081416170470161704700BFFEE700BFB8
:10030000FEE710B5802000F0CBF870B14FF48030DC
:1003100000F0E6F80121082000F026F90121102064
:1003200000F022F9802000F06BF810BD08B5052020
:100330008DF8000000208DF801008DF802000120EA
:100340008DF80300684600F001F808BD70B5002183
:1003500000230F22C47804B3154C246804F4E0642D
:10036000C4F5E064210AC1F10403CA40447804FAE8
:1003700003F184781440214309010E4C0678A155FD
:10038000047804F01F050124AC4005786D11AD0020
:1003900005F1E025C5F8004109E0047804F01F05E7
:1003A0000124AC40044D0678761145F8264070BD16
:1003B0000CED00E000E400E080E100E070470000A8
:1003C00029B1064AD2690243044BDA6104E0034AC8
:1003D000D2698243014BDA6170470000001002408D
:1003E00029B1064A92690243044B9A6104E0034A28
:1003F00092698243014B9A617047000000100240ED
:100400000149887270470000001002400149C86429
:1004100070470000000042420F48006840F00100B1
:100420000D490860084640680C4908400A49486080
:10043000084600680A4908400749086008460068FD
:1004400020F4802008600846406820F4FE004860E0
:100450004FF41F0088607047001002400000FFF852
:10046000FFFFF6FE10B501460022002300204A11CE
:10047000012A02D1094C236806E0022A02D1074C66
:10048000236A01E0054C636A01F01F0201249440D5
:100490001C400CB1012000E0002010BD0010024003
:1004A00001460020034A92680A400AB1012000E098
:1004B00000207047001002400248406800F00C0025
:1004C000704700000010024001460020034A5068B7
:1004D00020F0F00008435060704700000010024018
:1004E0001149096821F480310F4A116011460968E9
:1004F00021F480211160B0F5803F03D0B0F5802F4A
:100500000ED106E00849096841F48031064A1160BD
:1005100007E00549096841F4A021034A116000E0A1
:1005200000BF00BF704700000010024010B5082057
:10053000FFF7B6FF48B10820FFF762FF3120FFF751
:1005400091FF10B1012000F037F81020FFF7A8FF4D
:1005500048B11020FFF754FF3920FFF783FF10B197
:10056000022000F03DF810BD29B1064A527A02433C
:10057000044B5A7204E0034A527A8243014B5A7286
:10058000704700000010024001460020034A5068F6
:1005900020F4E06008435060704700000010024003
:1005A00001460020034A506820F4605040EAC10030
:1005B0005060704700100240014908667047000013
:1005C0000000424202460020044B586820F47C1090
:1005D00042EA01031843014B586070470010024083
:1005E00001460020034A506820F003000843506091
:1005F000704700000010024038B500200090002431
:10060000002500BF3120FFF72DFF05460098401C54
:1006100000900098B0F5A06F01D0002DF2D03120ED
:10062000FFF720FF08B1012400E00024204638BD78
:10063000704710B500F00AF810BD10B500F076F85C
:100640000120FFF7E3FEFFF771FE10BD0CB500209F
:10065000019000903348006840F4803031490860D0
:1006600000BF3048006800F4003000900198401C42
:100670000190009818B90198B0F5A06FF1D1294800
:10068000006800F4003010B10120009001E000206B
:1006900000900098012843D12348006840F01000E2
:1006A000214908600846006820F0030008600846F9
:1006B000006840F0020008601A4840681949486024
:1006C0000846406848600846406840F480604860DA
:1006D0000846406820F47C1048600846406840F4B2
:1006E000E81048600846006840F08070086000BF6D
:1006F0000C48006800F000700028F9D009484068F4
:1007000020F00300074948600846406840F00200B6
:10071000486000BF0348406800F00C000828F9D189
:100720000CBD0000001002400020024010B5FFF791
:1007300073FE4FF48030FFF7D3FEFFF75DFF1849DB
:10074000087008460078012827D11020FFF716FD11
:100750000220FFF721FD0020FFF7B6FE0020FFF783
:100760001FFF4FF48060FFF70FFF4FF4E0114FF4CD
:100770008030FFF727FF0120FFF71EFF00BF392061
:10078000FFF770FE0028FAD00220FFF729FF00BF14
:10079000FFF792FE0828FBD101E000BFFEE710BD85
:1007A000000000207047000010B51348006840F0BA
:1007B00001001149086008464068104908400E4988
:1007C0004860084600680E4908400B490860084622
:1007D000006820F4802008600846406820F4FE008D
:1007E00048604FF41F008860FFF723FF4FF0006060
:1007F0000449086010BD0000001002400000FFF82E
:10080000FFFFF6FE08ED00E021B1028842F0010290
:10081000028004E002884FF6FE731A40028070479F
:100820000146888C7047818470470000002202884E
:100830001D4B98420ED01D4B98420BD0B0F1804F0B
:1008400008D01B4B984205D01A4B984202D01A4B45
:10085000984204D14FF68F731A404B881A43174BB6
:10086000984207D0164B984204D04FF6FF431A40E7
:10087000CB881A4302808B8883850B8803850A4BBB
:1008800098420BD0094B984208D00E4B984205D0A5
:100890000D4B984202D00D4B984201D10B7A038642
:1008A0000123838270470000002C01400034014086
:1008B0000004004000080040000C00400010004010
:1008C0000014004000400140004401400048014045
:1008D0000EB501210846FFF773FD0020ADF80200B8
:1008E0004FF6FF70ADF804004720ADF800006946F0
:1008F0004FF08040FFF79AFF01218807FFF784FF40
:100900000EBD00BFFEE702E008C8121F08C1002AA2
:10091000FAD170477047002001E001C1121F002A80
:10092000FBD17047FFF789FEFFF742FCFFF7D0FFCE
:1009300011E04FF400510848FFF7DDFC4FF47A70E6
:10094000FFF707FC4FF400510348FFF7D2FC4FF4C8
:100950007A70FFF7FEFBECE7001001407C0900080D
:1009600000000020040000000609000880090008BB
:100970000400002004040000160900080000000024
:0400000508000105E9
:00000001FF
