:020000040800F2
:10000000484A00209D0100081D0F0008CD09000886
:10001000A90E000833030008B31700080000000011
:1000200000000000000000000000000005010008C2
:100030005907000800000000490100085513000896
:10004000B7010008B7010008B7010008B7010008B0
:10005000B7010008B7010008B7010008B7010008A0
:10006000B7010008B7010008B7010008B701000890
:10007000B7010008B7010008B7010008B701000880
:10008000B7010008B7010008B7010008B701000870
:10009000B7010008B7010008B7010008B701000860
:1000A000B7010008B7010008B7010008B701000850
:1000B000B7010008B7010008B7010008B701000840
:1000C000B7010008B7010008B7010008B701000830
:1000D000B701000879150008B7010008B70100084A
:1000E000B7010008B7010008B7010008DFF810D019
:1000F00000F0E2F800480047091A0008AFF300805A
:10010000484A0020224B19680868B0E8F00F80F3D5
:100110000988BFF36F8F4FF0000080F311884EF015
:100120000D0E70470000000006480068006880F36C
:10013000088862B661B6BFF34F8FBFF36F8F00DFE1
:1001400000BF00BF08ED00E0EFF30980BFF36F8F41
:100150000F4B1A6820E9F00F106008B54FF0BF0090
:1001600080F31188BFF34F8FBFF36F8F02F0AAFBAC
:100170004FF0000080F31188BDE808401968086856
:10018000B0E8F00F80F30988BFF36F8F704700BFAE
:100190001C010020EFF305807047000006488047EF
:1001A00006480047FEE7FEE7FEE7FEE7FEE7FEE75C
:1001B000FEE7FEE7FEE7FEE789130008ED00000812
:1001C00040EA01039B0703D009E008C9121F08C0D9
:1001D000042AFAD203E011F8013B00F8013B521E59
:1001E000F9D27047C10F80EAE0700844CA0796232D
:1001F000002100F033B820F00040C10DC0F316001C
:1002000040F400007F2901DA00207047962903DCC2
:10021000C1F19601C840704796398840704730B5A3
:100220000B46014600202022012409E021FA02F5B4
:100230009D4205D303FA02F5491B04FA02F528444E
:10024000151EA2F10102F1DC30BD0029A8BF7047E4
:10025000401C490008BF20F00100704710B4B0FAFC
:1002600080FC00FA0CF050EA010404BF10BC704797
:1002700049B1CCF1200421FA04F411FA0CF118BFB1
:10028000012121430843A3EB0C01CB1D4FEA006180
:100290004FEA102042BF002010BC704700EBC35053
:1002A00010440029A4BF10BC7047401C490008BF7F
:1002B00020F0010010BC7047064C074D06E0E068D6
:1002C00040F0010394E8070098471034AC42F6D39D
:1002D000FFF710FF143400083434000870B58C1890
:1002E00010F8015B15F0070301D110F8013B2A114A
:1002F00006D110F8012B03E010F8016B01F8016B37
:100300005B1EF9D12B0705D40023521E0DD401F832
:10031000013BFAE710F8013BCB1A921C03E013F8FB
:10032000015B01F8015B521EF9D5A142D8D3002030
:1003300070BD00BFFEE7000010B5214840783028AE
:1003400004D031281ED032282AD122E01D4800686E
:1003500002F0B8F91C48006802F0B4F91B480068C4
:1003600002F0B0F91A48006802F0ACF9002019490F
:1003700008701949087019A001F01EFA1CA001F0BC
:100380001BFA1AE028A001F017FA012011490870A1
:1003900013E033A001F010FA02200E4908700CE0BF
:1003A0003DA001F009FA3EA001F006FA01200A4939
:1003B000087005200749087000BF00BF10BD00008D
:1003C00060010020B4000020B8000020BC00002024
:1003D000C0000020A9000020010000200D0A436891
:1003E000616E6765207375636365737321212100F6
:1003F0000D0A2A2A2A2A2A2A2A2A2A2A2A2A2A2A9A
:100400002A2A2A2A2A2A2A2A2A2A2A2A2A2A2A2A4C
:100410002A2A2A2A2A2A2A2A2A2A2A2A2A2A2A2A3C
:100420002A2A2A2A000000000D0A4368616E6765C7
:1004300020706572696F64206F662076476574442A
:1004400061746144485431315461736B2D2D3E4EBB
:1004500065772076616C75652873293A0000000085
:100460000D0A4368616E676520706572696F64206C
:100470006F66207647657444617461445331384235
:1004800032305461736B2D2D3E4E65772076616C52
:1004900075652873293A00000D0A5265706C790061
:1004A0000D0A5479706520796F7572206F707074C1
:1004B000696F6E2068657265203A000010B500F023
:1004C00095F90024282000F05CF902210B4800F087
:1004D00070FA50B9502000F054F90221074800F09A
:1004E00068FA08B1012400E0002400BF022103489B
:1004F00000F05FFA0028F9D1204610BD0008014045
:1005000010B5044600F066F8FFF7D8FF14490870EC
:1005100000F032F81349087000F02EF81249087004
:1005200000F02AF81149087000F026F81049087008
:1005300000F022F80F4908800A4800780A49097833
:1005400008440A49097808440949097808440949CE
:100550000988884202D105480078207010BD00004B
:10056000E2000020DC000020DD000020DE00002092
:10057000DF000020E000002070B5002423E000BF71
:100580000221134800F015FA0028F9D0282000F0C5
:10059000F8F802210E4800F00CFA28B9C4F107015E
:1005A00001208840854305E0C4F10701012088400F
:1005B0002843C5B200BF0221054800F0FAF900281F
:1005C000F9D1601CC4B2082CD9DB284670BD0000EC
:1005D0000008014010B500F01FF90221064800F0A4
:1005E000F1F9142000F0B9F80221034800F0ECF909
:1005F0001E2000F0C6F810BD0008014010B500F044
:100600005FF8012000F0A9F8CC2000F07BF844202E
:1006100000F078F84FF4487000F09FF800F050F8C0
:10062000012000F09AF8CC2000F06CF8BE2000F019
:1006300069F800F021F80C49087000F01DF80B492A
:10064000087009480078097840EA012008490880C4
:1006500008460488E11704EB11710811FFF7C2FD89
:100660000449086010BD0000E4000020E5000020FF
:10067000E6000020E800002070B5002500F0E2F858
:10068000002417E000F0F4F804210C4800F09AF977
:10069000022000F076F800F0D5F80421074800F0B9
:1006A00088F918B10120A0402843C5B23C2000F0D1
:1006B00068F8641C082CE5DB284670BD0008014082
:1006C00010B5002400F0D4F804210D4800F07AF9A8
:1006D0004FF4F07000F055F800F0B4F8502000F03E
:1006E00050F80421064800F064F908B9012400E03C
:1006F00000244FF4F07000F044F8204610BD0000D4
:100700000008014070B5054600F0B2F800241EE074
:100710000120A040284070B100F0AAF804210D4843
:1007200000F050F9012000F02CF800F08BF8322096
:1007300000F027F80AE000F09BF80421054800F0DB
:1007400041F9322000F01DF800F07CF8641C082C00
:10075000DEDB70BD00080140704710B504460DE0B7
:1007600000214FF0804000F04EFE00BF4FF080406F
:1007700000F046FEB0F57A7FF8D3641E002CEFD16E
:1007800010BD10B504460CE000214FF0804000F091
:100790003AFE00BF4FF0804000F032FE0028F9D052
:1007A000641E002CF0D110BD08B50121052000F019
:1007B00069FC4FF48060ADF8000004208DF8030060
:1007C0006946094800F06AF84FF40070ADF800007F
:1007D00003208DF8020018208DF8030069460248B6
:1007E00000F05CF808BD00000008014008B5482092
:1007F0008DF803000220ADF8000003208DF8020000
:100800000121042000F03EFC6946024800F046F851
:1008100008BD00000008014008B510208DF8030055
:100820000220ADF8000003208DF802000121042011
:1008300000F028FC6946024800F030F808BD0000CE
:100840000008014008B548208DF803000420ADF8E9
:10085000000003208DF802000121042000F012FCAA
:100860006946024800F01AF808BD0000000801407F
:1008700008B510208DF803000420ADF80000032017
:100880008DF802000121042000F0FCFB69460248BB
:1008900000F004F808BD0000000801402DE9F04117
:1008A000024600250026002000230024002791F89E
:1008B00003C00CF00F0591F803C00CF0100CBCF154
:1008C000000F03D091F802C04CEA050591F800C072
:1008D000BCF1000F31D0146800202BE04FF0010C68
:1008E0000CFA00F3B1F800C00CEA03069E4220D1D6
:1008F00083004FF00F0C0CFA03F7BC4305FA03FC1E
:100900004CEA040491F803C0BCF1280F06D14FF063
:10091000010C0CFA00FCC2F814C00AE091F803C004
:10092000BCF1480F05D14FF0010C0CFA00FCC2F8E5
:1009300010C0401C0828D1D31460B1F800C0BCF12D
:10094000FF0F34DD546800202EE000F1080C4FF05A
:10095000010808FA0CF3B1F800C00CEA03069E4245
:1009600021D183004FF00F0C0CFA03F7BC4305FABA
:1009700003FC4CEA040491F803C0BCF1280F05D134
:1009800000F1080C08FA0CF8C2F8148091F803C0C2
:10099000BCF1480F07D100F1080C4FF0010808FA2C
:1009A0000CF8C2F81080401C0828CED35460BDE873
:1009B000F0810246002093680B400BB1012000E05B
:1009C00000207047416170470161704700BFFEE73A
:1009D00021B1028842F48062028004E002884FF66E
:1009E000FF331A400280704770B50246002400258C
:1009F00000230020958A138B1B0445EA030626F08A
:100A00007F4404EA01068E4201D1012000E000206B
:100A100070BD21B1028842F00102028004E0028828
:100A20004FF6FE731A4002807047000000B585B093
:100A30000121880500F016FB0121082000F022FBAF
:100A40004FF44060ADF8100003208DF812001C2018
:100A50008DF8130004A91048FFF720FF0020ADF81F
:100A600004004BF6FF70ADF806004FF48060ADF85F
:100A70000A000020ADF808004FF48040ADF80C00EB
:100A8000064800906946064800F042F801210448F3
:100A9000FFF7BFFF05B000BD000C0140A0860100BC
:100AA0000058004021B1028842F48072028004E0C4
:100AB00002884FF6FF631A400280704721B1028816
:100AC00042F40072028004E002884FF6FF531A409D
:100AD000028070470CB5024600200023019300936A
:100AE00000920B0F019321F07F41019B1BB1009BF2
:100AF0001433009303E0090C009B18330093009B10
:100B00001B680B400BB1012000E000200CBD000071
:100B10002DE9F04385B004460D460026B146042772
:100B2000DFF8CC80A6884FF6C0700640684600F01B
:100B3000B9FADDF808802F48B8FBF0F01FFA80F909
:100B400046EA0906A68020884FF6FE7108402080FC
:100B500000262949286888420CD828684000B8FB3C
:100B6000F0F087B2042F00DA04273E4309F10100B8
:100B7000208427E0E8884BF6FF71884206D1286878
:100B800000EB4000B8FBF0F087B209E0286800EB0A
:100B9000C00101EB0010B8FBF0F087B247F48047CA
:100BA000C7F30B0008B947F0010747F400400643BC
:100BB0004FF4967009FB00F04FF47A7190FBF1F05E
:100BC000401C2084A683208840F0010020802688D5
:100BD0004FF6F5300640A888698908430643268009
:100BE000A88929890843208105B0BDE8F083000069
:100BF00000127A0040420F00A086010010B50446A2
:100C00001CB101200449C87002E000200249C870EC
:100C100000F00AF810BD0000EC00002010B5012023
:100C200000F076F810BD000010B500240EE00C486E
:100C3000007840100A4908700A48005D20B1084653
:100C4000007840F080000870601CC4B2082CEEDB15
:100C5000034802784E21044800F0C6F810BD000099
:100C6000F4000020EC0000200058004010B53220B5
:100C7000FFF773FD002404E000201A490855601CAA
:100C8000C4B2082CF8DBFFF7CFFF0020154908702D
:100C9000FFF7CAFF002013494870FFF7C5FF032084
:100CA00000F04EF80520FFF758FD032000F048F84B
:100CB0000120FFF752FD032000F042F80120FFF76A
:100CC0004CFD022000F03CF80120FFF746FD2820F3
:100CD00000F01EF80C2000F01BF8012000F018F8BE
:100CE00010BD0000EC00002010B5C02000F010F88E
:100CF00010BD10B5044607E0207820B114F8010BB0
:100D000000F0BAF800E000E0F6E700BF10BD000018
:100D100010B5044600F07AF8002008490870FFF783
:100D200083FF002005494870FFF77EFF201100F087
:100D300007F8204600F004F810BD0000EC00002089
:100D400010B5044604F0080018B101201749C87115
:100D500002E000201549C87104F0040018B1012018
:100D60001249887102E000201049887104F00200E5
:100D700018B101200D49487102E000200B4948716B
:100D800004F0010018B101200849087102E00020B8
:100D900006490871012005498870FFF745FF0020CA
:100DA00002498870FFF740FF10BD0000EC000020F2
:100DB00070B504460D462946204600F085FA2046C7
:100DC00000F0DAF90646304670BD0146088AC0B226
:100DD000704712B141F0010102E04FF6FE73194075
:100DE000018270470182704770B505460E46144671
:100DF0003146284600F08AFA2146284600F0D6F906
:100E000001212846FFF75AFE70BD000010B50120F1
:100E10001749087148718871C871FFF705FF0020F4
:100E200013490870FFF700FF012011494870FFF7D0
:100E3000FBFE00BF01200E498870FFF7F5FE4E2132
:100E40000C48FFF7B5FF0446002009498870FFF7FA
:100E5000EBFE012006498870FFF7E6FE00200449FA
:100E60008870FFF7E1FE04F008000028E2D110BD11
:100E7000EC0000200058004010B50446FFF7C6FF04
:100E8000012008490870FFF7CFFE0020054948708F
:100E9000FFF7CAFE2011FFF753FF2046FFF750FF70
:100EA00010BD0000EC00002000BFFEE770B5124846
:100EB000006801F093FC1148006801F08FFC1048B5
:100EC000006801F08BFC0F48006801F087FC0E48B9
:100ED00000684FF47A71B0FBF1F40C480068B0FB85
:100EE000F1F5224629460A4800F066FC09490AA0A5
:100EF00000F062FC70BD0000B4000020B8000020CB
:100F0000BC000020C00000200800002004000020D9
:100F1000B83300080C000020257300007047000063
:100F200010B528480078032819D127488078303830
:100F300000280ADD244880783038092805DC22485A
:100F400080783038214908703AE021A000F034FC64
:100F500021A000F031FC02201A49087030E0194845
:100F6000007804282CD11848C0783038002811DBCC
:100F70001548C078303809280CDC1348C078303860
:100F800012494870FFF792FF01200E490870164978
:100F9000087015E00C48C0780D2808D1FFF786FFCF
:100FA00001200849087000200F49087008E008A0D7
:100FB00000F002FC08A000F0FFFB022001490870CD
:100FC00010BD000001000020600100200200002090
:100FD0000D0A5265706C79000D0A4E6577207661B6
:100FE0006C75653A00000000AA00002010B500F002
:100FF0005FFAFFF71BFDFFF7D7FB00F073FA12A0B3
:1010000000F0DAFBFFF732FEFFF708FE0120FFF7E2
:10101000F5FD0EA0FFF76DFE8C20FFF779FEDF20B7
:10102000FFF72AFF0BA0FFF764FEFFF75DFE0AA0A3
:10103000FFF75FFECC20FFF76BFEDF20FFF71CFF02
:1010400004A0FFF756FE10BD200A0D00444854319D
:10105000313A000043000000445331384232303A04
:101060000000000029B1064AD2690243044BDA614C
:1010700004E0034AD2698243014BDA617047000001
:101080000010024029B1064A92690243044B9A615A
:1010900004E0034A92698243014B9A617047000061
:1010A0000010024030B500210022002400232D4D05
:1010B0006D6805F00C0121B1042905D0082923D160
:1010C00005E0294D056022E0274D05601FE0254D14
:1010D0006D6805F47012234D6D6805F480340225A7
:1010E00005EB92421CB9214D554305600BE01D4DA7
:1010F0006D6805F400351DB11C4D5543056002E0D7
:10110000194D5543056002E0174D056000BF00BF53
:10111000144D6D6805F0F0010909154D6B5C05680B
:10112000DD4045600F4D6D6805F4E061090A104D22
:101130006B5C4568DD4085600A4D6D6805F4605163
:10114000C90A0B4D6B5C4568DD40C560054D6D6897
:1011500005F44041890B074D6B5CC568B5FBF3F5A1
:10116000056130BD0010024000127A0000093D0008
:10117000C8000020D800002070B504460021204699
:10118000FFF726FC01212046FFF798FC00BF064927
:101190002046FFF729FC0028F9D02046FFF715FE6E
:1011A0000546284670BD00004000030070B50446A7
:1011B0000D4600BF08492046FFF78CFC0028F9D0F7
:1011C00029462046FFF70EFE00BF04492046FFF7E0
:1011D0000BFC0028F9D070BD8000001084000700CF
:1011E00010B500F001F810BD0CB500200190009082
:1011F0003348006840F480303149086000BF30480F
:10120000006800F4003000900198401C01900098A4
:1012100018B90198B0F5A06FF1D12948006800F421
:10122000003010B10120009001E0002000900098F3
:10123000012843D12348006840F01000214908608C
:101240000846006820F0030008600846006840F087
:10125000020008601A48406819494860084640681A
:1012600048600846406840F480604860084640682E
:1012700020F47C1048600846406840F4E81048605C
:101280000846006840F08070086000BF0C480068A5
:1012900000F000700028F9D00948406820F00300F1
:1012A000074948600846406840F00200486000BFB7
:1012B0000348406800F00C000828F9D10CBD00007C
:1012C000001002400020024070B504460D46002187
:1012D0002046FFF77DFB01212046FFF7E3FB00BF1F
:1012E00009492046FFF780FB0028F9D00122294652
:1012F0002046FFF76EFD00BF0349491C2046FFF75B
:1013000073FB0028F8D070BD0100030070B50446DF
:101310000D4600212046FFF75BFB01212046FFF729
:10132000C1FB00BF09492046FFF75EFB0028F9D04A
:10133000002229462046FFF74CFD00BF0449204605
:10134000FFF752FB0028F9D070BD00000100030038
:101350008200070010B500BFBF2080F31188BFF3E3
:101360004F8FBFF36F8F00BF01F02CFE18B14FF00D
:1013700080500449086000BF002080F3118800BF3E
:1013800010BD000004ED00E010B51348006840F007
:1013900001001149086008464068104908400E499C
:1013A0004860084600680E4908400B490860084636
:1013B000006820F4802008600846406820F4FE00A1
:1013C00048604FF41F008860FFF70AFF4FF000608D
:1013D0000449086010BD0000001002400000FFF842
:1013E000FFFFF6FE08ED00E021B1028842F00102A5
:1013F000028004E002884FF6FE731A4002807047B4
:101400000146888C70478184704700000022028862
:101410001D4B98420ED01D4B98420BD0B0F1804F1F
:1014200008D01B4B984205D01A4B984202D01A4B59
:10143000984204D14FF68F731A404B881A43174BCA
:10144000984207D0164B984204D04FF6FF431A40FB
:10145000CB881A4302808B8883850B8803850A4BCF
:1014600098420BD0094B984208D00E4B984205D0B9
:101470000D4B984202D00D4B984201D10B7A038656
:101480000123838270470000002C0140003401409A
:101490000004004000080040000C00400010004024
:1014A0000014004000400140004401400048014059
:1014B0000EB501210846FFF7D5FD0020ADF802006A
:1014C0004FF6FF70ADF804004720ADF80000694604
:1014D0004FF08040FFF79AFF01218807FFF784FF54
:1014E0000EBD00001FB501218803FFF7CBFD4FF4AF
:1014F000E13000900020ADF80400ADF80600ADF832
:101500000800ADF80C000C20ADF80A006946174839
:1015100000F0DAF82021154800F064F8012240F2CA
:101520002551124800F0AAF825200121002807DAE9
:101530000A07140E0E4A00F00F031B1FD45403E0D9
:101540000A07130E0B4A135400BF252000F01F0298
:10155000012191404209920002F1E022C2F80011FB
:1015600000BF0121014800F046F81FBD00380140CE
:1015700018ED00E000E400E00EB50020029040F21B
:101580002551134800F050F808B3114800F008F94D
:101590001049114A127888540F480078401C0E49AF
:1015A000087002A800210B460A46CDE900100B483E
:1015B000006801F0B5FB00BF029838B14FF08050D1
:1015C00007490860BFF34F8FBFF36F8F00BF0EBD99
:1015D000003801406001002001000020C40000200C
:1015E00004ED00E001F40072B2F5007F00D100BF0D
:1015F000CA430280704721B1828942F4005282813D
:1016000004E082894DF6FF731A40828170470246DA
:101610000020B1F5007F00D100BF13880B400BB153
:10162000012000E00020704770B50246002400232E
:101630000025002040F66A16B14200D100BFC1F378
:10164000421501F01F03012606FA03F3012D02D112
:101650009689334006E0022D02D1168A334001E01C
:10166000968A33400C12012606FA04F41688344098
:1016700013B10CB1012000E0002070BDF0B50346AD
:10168000002400260025002040F66A17B94200D148
:1016900000BF1846C1F3421401F01F06012707FAE4
:1016A00006F5012C01D10C3004E0022C01D11030E0
:1016B00000E014301AB107682F43076002E00768A2
:1016C000AF430760F0BD00002DE9F04786B0054646
:1016D0000E460024A24600BFA1460027B08900B1F3
:1016E00000BF2F462C8A4CF6FF700440F08804435C
:1016F0002C82AC894EF6F3100440B088318908433F
:10170000718908430443AC81AC8A4FF6FF40044022
:10171000B0890443AC8201A8FFF7C4FC1F4887428C
:1017200002D1DDF810A001E0DDF80CA0A88900F4DA
:10173000004040B10AEBCA0000EB0A1031684900D2
:10174000B0FBF1F807E00AEBCA0000EB0A103168C1
:101750008900B0FBF1F86420B8FBF0F00401200927
:10176000642101FB1089A88900F4004040B13220B7
:1017700000EBC900B0FBF1F000F00700044308E003
:10178000322000EB09106421B0FBF1F000F00F00F3
:1017900004432C8106B0BDE8F0870000003801400A
:1017A00001468888C0F308007047C1F308028280B0
:1017B000704700BFFEE700000FB4054B10B503A94A
:1017C000044A029800F02CF810BC5DF814FB0000ED
:1017D000E51900085C0100200FB4084B10B504A9FE
:1017E00002AA039800F01CF8044602A9002000F0A9
:1017F000F3F8204610BC5DF814FB0000D91900086E
:1018000002E008C8121F08C1002AFAD170477047C9
:10181000002001E001C1121F002AFBD17047000027
:101820002DE9FF4F8BB09A460F460546002606E08D
:1018300025280BD052460D9990476D1C761C2878B0
:101840000028F5D10FB03046BDE8F08F0024A04647
:101850000122604900E0044315F8013F203B02FAF1
:1018600003F00842F7D128782E2817D115F8010F78
:1018700044F004042A280ED06FF02F022878A0F13B
:10188000300109290AD808EB880102EB410100EB7D
:1018900001086D1CF2E757F8048B6D1C2878692845
:1018A0003ED006DC0028CDD063280BD0642804D1BC
:1018B00036E0732810D075284BD052460D999047CA
:1018C000761C85E017F8040B8DF8000000208DF8D9
:1018D0000100E946012003E057F8049B4FF0FF3078
:1018E00061074FF0000401D40AE0641C44450DDA9E
:1018F0008442FADB19F804100029F6D106E0641CD2
:101900008442FCDB19F804100029F8D1264404E0D5
:1019100019F8010B52460D999047641EF8D257E012
:1019200001CF4FF00A0B002802DA40422D2102E0DD
:10193000210504D52B218DF82410012103E0E107B6
:1019400005D02021F7E70DF1200908910CE00021D6
:10195000F9E701CF4FF00A0BF9E75946FEF75FFCB4
:1019600001F1300209F8012D0028F6D1ADEB090094
:1019700000F1200B600701D44FF00108D84502DDCB
:10198000A8EB0B0000E000208046002406E009A838
:101990005246005D0D999047641C761C089884425D
:1019A000F5DB04E0302052460D999047761CB8F1E3
:1019B0000001A8F10108F5DC05E019F8010B524619
:1019C0000D999047761CBBF10001ABF1010BF4DCE3
:1019D0006D1C34E7092801000A68531C0B60107065
:1019E0007047000070B504460D46E1B20548FFF7A8
:1019F000DCFE00BF40210348FFF709FE0028F9D0B4
:101A0000204670BD003801401CB5FFF7EFFA0022F8
:101A10000221012000F0A0FF2549086000220221D8
:101A2000012000F099FF2349086021480068002840
:101A30003CD008460068002838D01F480221002307
:101A40004FF4FA72CDE900101CA1214801F038F9D9
:101A50002048022100234FF4FA72CDE900101EA1A4
:101A6000224801F02DF92248032100234FF4FA7295
:101A7000CDE900101FA1234801F022F922480321DB
:101A800000234FF4FA72CDE9001020A1234801F0A1
:101A900017F92348042100234FF4FA72CDE900100E
:101AA00020A1244801F00CF900F062FE00BFFEE71F
:101AB000AC000020B0000020B40000207647657420
:101AC0004461746144485431315461736B000000C7
:101AD000E1220008B8000020764765744461746113
:101AE000445331384232305461736B00452300084F
:101AF000BC00002076446973706C61794C43445497
:101B000061736B0081220008C00000207653656E6F
:101B100064546F50435461736B000000CD2400087F
:101B2000C40000207653657454696D655461736B0D
:101B300000000000252500082DE9F04105460E466D
:101B40002648076826480068001D00F083FB50B94E
:101B50002348006890F82C1001208840214909682A
:101B6000814320480160681CD8B9D6B11E49486835
:101B70001B49096888601A4982680968CA6018495F
:101B80000968091D8268516015490968091D81604D
:101B9000154A134909684A6111460968491C1160D0
:101BA0001AE07C190E4800684460BC4207D20C4819
:101BB0000168091D0D48006800F008FC0CE00848A9
:101BC0000168091D0A48006800F000FC0948006827
:101BD000844201D207480460BDE8F0813001002052
:101BE0001C01002034010020344600202401002084
:101BF000200100204C01002010B5044600F00CFC30
:101C00002F480068401C2E4908602E48006840B9E3
:101C10002C4804600846006801280DD100F082F9C4
:101C20000AE02948006838B926480068C06AE16AB5
:101C3000884201D82348046024480068401C234996
:101C4000086094F82C100120884021490968084355
:101C50001F490860E16A01EB81011E4A02EB810124
:101C60004868A0608268E260211D826851608160DE
:101C7000E16A01EB8101174A02EB81026261E16ACC
:101C800001EB8101134A52F82110491CE26A02EB70
:101C90008202104B43F8221000F0D0FB0A48006883
:101CA00068B108480068C06AE16A884207D24FF00C
:101CB000805009490860BFF34F8FBFF36F8F10BD8D
:101CC0002C0100201C0100203801002048010020C8
:101CD000340100208045002004ED00E010B516E03E
:101CE00000F09AFB0C48C068C468201D00F0B2FAEE
:101CF0000A480068401E0949086009480068401EFB
:101D00000749086000F09AFB204600F055F80448A7
:101D100000680028E4D110BD204600202C010020DE
:101D20002801002070B504460D46206C70B1216C6E
:101D3000E0680144E160D4E90210884201D32168DF
:101D4000E1602846226CE168FEF73AFA70BD2DE9A1
:101D5000F04104460F4615464FF00008A66B206C74
:101D600028B37DB93946226C6068FEF729FA216CE8
:101D7000606808446060D4E90101884217D3206894
:101D8000606014E03946226CE068FEF719FA216CB5
:101D9000E068411AE1602168E068884203D2216C62
:101DA000A068411AE160022D01D106B1761E701CB7
:101DB000A0634046BDE8F08110B50446206B00F0FA
:101DC0004DFB204600F04AFB10BD000030B54FF43B
:101DD0008843174800F007042CB1C01D20F007000D
:101DE000134C041B1B1B0246124C22600024114D95
:101DF0006C60D018083820F007000F4C20600024D9
:101E00000D4D2D686C600C4D2D682C601146441AE8
:101E10004C60094C24680C60084D4C682C60084DDF
:101E20004C682C604FF00044064D2C6030BD000023
:101E30007E010020F80000200001002008010020A1
:101E4000040100201401002000BFFFF747FF0748EE
:101E50000068012807D94FF0805005490860BFF39A
:101E60004F8FBFF36F8F00F009FAEEE78045002037
:101E700004ED00E02DE9F04106460D461746984670
:101E8000069C0DB9246000E02760E663256401210B
:101E9000204600F087FDBDE8F0812DE9FF5F804618
:101EA0000E469146DDE90E7A109CA9F10100216BE6
:101EB00001EB800B2BF0070B86B1002507E0715D6D
:101EC00004F134004155705D00B902E06D1C102D25
:101ED000F5D300BF00214320015502E0002084F823
:101EE0003400052F00D30427E762201D00F06BFAB1
:101EF00004F1180000F067FA2461C7F10500A06141
:101F000064620020606484F8480041465846039AA1
:101F100000F08EF92060BAF1000F01D0CAF800403D
:101F2000BDE8FF9F10B5002407E004EB84010F4AD1
:101F300002EB810000F03AFA641C052CF5D30C4842
:101F400000F034FA0B4800F031FA0B4800F02EFA9A
:101F50000A4800F02BFA0A4800F028FA0448094918
:101F6000086004480849086010BD00008045002052
:101F7000E4450020F84500200C46002020460020C3
:101F800034460020200100202401002010B5014625
:101F9000164800E0006803688B42FBD302464368A2
:101FA00013448B4204D143684C6823444360014688
:101FB0000A464B6813440468A34211D10C4C0368D1
:101FC0002468A34208D04B680468646823444B60CB
:101FD00003681B680B6005E0054B1B680B6001E0A4
:101FE00003680B60884200D0016010BDF80000203B
:101FF0000001002070B5054600F00EFAA86B08B984
:10200000012400E0002400F019FA204670BD70B5EC
:10201000054600F001FAA86BE96B884201D1012462
:1020200000E0002400F00AFA204670BD094800686C
:10203000006808B9012000E0002020B14FF0FF3017
:102040000549086005E003480068C0680068024967
:1020500008607047200100204C01002000BFBF2015
:1020600080F31188BFF34F8FBFF36F8F00BF00BFA6
:10207000FEE7000010B5014600200A460B4C5369EC
:10208000A34201D1012300E0002373B1084C936AFD
:10209000A34201D1012300E0002333B9936A0BB9B5
:1020A000012300E0002303B1012010BD34460020CD
:1020B0000C46002070B5044600F0AEF994F9455086
:1020C00010E0606A08B9012000E0002038B904F18E
:1020D000240001F03FF818B100F0DEFA00E003E060
:1020E000681E45B2002DECDC00BFFF2084F84500DF
:1020F00000F0A4F900F090F994F9445010E0206940
:1021000008B9012000E0002048B904F1100001F0F6
:1021100021F808B100F0C0FA681E45B200E001E005
:10212000002DECDC00BFFF2084F8440000F086F9AD
:1021300070BD00002DE9F04104464FF0000800F0AA
:10214000B9FB3548006808B9FFF740FE334800681E
:10215000204000285BD1B4B104F10800A04212D99C
:10216000083404F0070078B104F00700C0F108005B
:102170002044A04205D904F00700C0F1080004443F
:1021800002E0002400E00024002C40D02448006835
:1021900084423CD8234E3046056801E02E462D6827
:1021A0006868A04202D228680028F7D11A4800685F
:1021B00085422CD0306800F10808286830606868D3
:1021C000001B102807D92F196868001B78606C6005
:1021D0003846FFF7DBFE124968680968081A10499B
:1021E00008600846006810490968884203D20C4814
:1021F00000680D4908600949686809680843686013
:102200000020286009480068401C0849086001F067
:1022100025F84046BDE8F0810001002014010020AF
:1022200004010020F8000020080100200C0100201B
:10223000001F4FF080730360001F21F00103036053
:10224000001F034B03601438026020387047000001
:102250005D20000801460A69D1E901309860D1E9A2
:10226000010358605068884201D18868506000209E
:1022700008611068401E10601068704730BF7047DA
:1022800008B500BF4FF0FF3269461248006800F001
:1022900065FC0446012CF5D19DF8010060B98A2047
:1022A000FEF736FD9DF800200BA10C48FFF794FACD
:1022B0000A48FEF71EFDE5E7CA20FEF729FD9DF856
:1022C000002005A10548FFF787FA0448FEF711FD35
:1022D000D8E70000AC000020256400007401002055
:1022E00008B500BF00F098F81248FEF709F900F0B1
:1022F000A5F8104800788DF8000000208DF8010046
:102300000023421E69460C48006800F09BFB002336
:102310005A1E69460948006800F094FB08480068A6
:102320004FF47A714843B0FBF1F4204600F08EF987
:10233000D8E7000000000020AC000020B000002022
:102340000400002008B500BF00F066F8FEF756F95B
:1023500000F074F811480068FDF74DFFC0B28DF829
:10236000000001208DF801000023821E69460C4800
:10237000006800F067FB00235A1E694609480068A0
:1023800000F060FB084800684FF47A714843B0FBE6
:10239000F1F4204600F05AF9D6E70000E8000020EA
:1023A000AC000020B00000200800002000F108016F
:1023B00041604FF0FF31816000F10801C1600161AF
:1023C00000210160704700210161704710B502468D
:1023D0000B685C1C0CB9106907E002F1080000E012
:1023E0004068446824689C42FAD944684C604C6850
:1023F000A160886041600A611468641C146010BDAB
:1024000042684A6093688B60936859609160086184
:1024100003685B1C0360704700BFBF2080F3118816
:10242000BFF34F8FBFF36F8F00BF03480068401C9E
:102430000149086070470000180100200648006844
:10244000401E054908600846006820B9002080F356
:10245000118800BF00BF70471801002070B5064604
:102460003546FEB1083D2C460F49606809680840B2
:10247000C0B12068B0B90C496068096888436060E1
:1024800000F018FA094960680968084407490860BB
:102490002046FFF77BFD06480068401C04490860A1
:1024A00000F0DCFE70BD00001401002004010020DB
:1024B0001001002000204FF0E021086188610248EF
:1024C00048610720086170473F19010008B500BF47
:1024D0004FF0FF3269460B48006800F03FFB0446AE
:1024E000012CF5D19DF8010028B99DF8001006A037
:1024F000FFF762F9ECE79DF8001006A0FFF75CF922
:10250000E6E70000B00000200D0A44485431313A9B
:10251000202564000D0A445331384232303A2025D8
:102520006400000008B500BF4FF0FF3000231A46DA
:1025300019460090184600F0EFFC2F48007801285B
:1025400011D12E4800780028EED12D48007873284C
:1025500005D12CA0FFF730F9FEF7A8FCE4E7002036
:1025600025490870E0E724480078022802D1FDF7E9
:10257000E3FED9E7204800780228D5DDFEF7D0FC3D
:102580001E480078012819D12C48007801280DD167
:102590002B4840782A49097801EB810100EB410082
:1025A0004FF47A71484327490860BDE72448007812
:1025B0004FF47A71484323490860B5E70F48007823
:1025C0000228B1D11D48007801280DD11C4840785F
:1025D0001B49097801EB810100EB41004FF47A714E
:1025E0004843194908609FE7154800784FF47A710D
:1025F00048431549086097E701000020A900002022
:10260000600100200D0A2A2A2A2A2A2A2A2A2A2A8E
:102610002A2A2A2A2A5F5F5F5F5F5F5F5F4D454E10
:10262000555F5F5F5F5F5F5F5F2A2A2A2A2A2A2A37
:102630002A2A2A2A2A2A2A2A00000000AA00002080
:1026400002000020040000200800002070B50446AD
:10265000002544B100F02EF900212046FFF76CFA66
:1026600000F0FCFD05463DB94FF08050034908607D
:10267000BFF34F8FBFF36F8F70BD000004ED00E01C
:102680000349096801600349096841607047000017
:1026900044010020300100200120014908607047FA
:1026A0004001002070B505460C4605480168183108
:1026B0002846FFF78BFE01212046FFF73DFA70BD4B
:1026C0001C01002070B505462C4625480068844250
:1026D00045D0002C43D0FFF79FFE2046FFF7CAFCF1
:1026E000D8B3201DFFF7B6FD94F82C1001208840C8
:1026F0001C49096808431B490860E16A01EB810134
:10270000194A02EB81014868A0608268E260211DDD
:10271000826851608160E16A01EB8101124A02EB3B
:1027200081026261E16A01EB81010F4A52F82110D6
:10273000491CE26A02EB82020B4B43F82210084963
:10274000E06A0968C96A884207D34FF08050074998
:102750000860BFF34F8FBFF36F8FFFF76FFE70BD41
:102760001C010020340100208045002004ED00E021
:102770001CB5124800210B468022CDE9001010A1A3
:10278000114800F09DFA0446012C14D100BFBF206F
:1027900080F31188BFF34F8FBFF36F8F00BF4FF0EF
:1027A000FF300A49086001200949086000200949F2
:1027B000086000F0B7F8084800681CBD5001002010
:1027C00049444C4500000000491E00084C0100200F
:1027D00038010020300100205401002070B505466A
:1027E000FFF71AFE15B92C48006800E02846044699
:1027F000201DFFF72FFD78B9E06A00EB8000274924
:1028000051F8200040B994F82C1001208840244948
:102810000968814322480160A06A18B104F11800D8
:10282000FFF718FD211D1F48FFF7EAFD002009E012
:1028300004F14801095C012903D1002204F1480197
:102840000A54401C0128F3DBFFF7F8FD1648006826
:1028500028B1FFF7E1FDFFF7E9FBFFF7EFFD0E48B9
:102860000068844217D11048006840B14FF0805092
:102870000E490860BFF34F8FBFF36F8F0BE009481D
:1028800000680B490968884203D1002002490860AA
:1028900001E000F017F870BD1C0100208045002009
:1028A00034010020344600203801002004ED00E00F
:1028B0002C01002002480068401C01490860704754
:1028C000580100201248006818B101201149086021
:1028D0001DE000200F4908600F480068B0FA80F042
:1028E000C0F11F0101EB81020C4B03EB8200426837
:1028F0005268426000F108024368934202D1426884
:10290000526842604268D268054B1A6000BF704747
:1029100058010020400100203401002080450020A3
:102920001C01002010B50A48006840F47F000849E7
:1029300008600846006840F07F400860FFF7BAFD75
:10294000002004490860FDF7EFFB002010BD0000E7
:1029500020ED00E0180100202DE9F84304460E4662
:1029600017460025DCB1681EB0FBF4F0B04216D368
:1029700004FB06F010F1490F11D804FB06F909F128
:102980004800FFF7D7FB05464DB1A84608F14808B7
:102990003B464246314620460095FFF76BFA2846F3
:1029A000BDE8F8832DE9F04105460E4601272C4687
:1029B000002C41D0E06B00283ED0B91EE06BB1FB8B
:1029C000F0F0216C884237D3FFF726FDD4E90F12CF
:1029D000206801FB0200A0600020A0632068606006
:1029E000E06B401E226C216800FB0211E160FF20B9
:1029F00084F8440084F845009EB9206908B9012094
:102A000000E00020A8B904F1100000F0A3FB80B1A1
:102A10004FF080500A490860BFF34F8FBFF36F8FAC
:102A200007E004F11000FFF7C1FC04F12400FFF7F8
:102A3000BDFCFFF703FD00E000273846BDE8F0814C
:102A400004ED00E02DE9FF4383B0074688461D46AC
:102A50004FF000093C4600BFFFF7DEFCA06BE16BC6
:102A6000884201D3022D28D12A4641462046FFF74D
:102A70006EF90646606A08B9012000E0002068B9D6
:102A800004F1240000F066FB88B14FF08050324919
:102A90000860BFF34F8FBFF36F8F08E03EB14FF078
:102AA00080502D490860BFF34F8FBFF36F8FFFF742
:102AB000C5FC012007B0BDE8F083059818B9FFF701
:102AC000BDFC0020F6E7B9F1000F04D101A8FFF723
:102AD000D7FD4FF00109FFF7B1FCFFF7EBFEFFF761
:102AE0009BFC94F94400401C10B9002084F8440079
:102AF00094F94500401C10B9002084F84500FFF708
:102B00009DFC05A901A800F0ABF8F0B92046FFF73D
:102B10007EFAA0B104F110000599FFF7C3FD20462D
:102B2000FFF7C8FA00F09AFB002895D14FF08050CB
:102B300009490860BFF34F8FBFF36F8F8CE72046C2
:102B4000FFF7B8FA00F08AFB86E72046FFF7B2FAF3
:102B500000F084FB0020ADE704ED00E02DE9F74133
:102B600083B005460F464FF000082C4600BFFFF724
:102B700053FCA66BF6B139462046FFF7D3F8701E1A
:102B8000A063206908B9012000E0002060B904F1C9
:102B9000100000F0DFFA38B14FF080502F49086084
:102BA000BFF34F8FBFF36F8FFFF748FC012006B0D4
:102BB000BDE8F081059818B9FFF740FC0020F6E762
:102BC000B8F1000F04D101A8FFF75AFD4FF001083A
:102BD000FFF734FCFFF76EFEFFF71EFC94F944008C
:102BE000401C10B9002084F8440094F94500401CB2
:102BF00010B9002084F84500FFF720FC05A901A8C2
:102C000000F02EF8F0B92046FFF7F4F9A0B104F176
:102C100024000599FFF746FD2046FFF74BFA00F028
:102C20001DFB0028A3D14FF080500C490860BFF372
:102C30004F8FBFF36F8F9AE72046FFF73BFA00F004
:102C40000DFB94E72046FFF735FA00F007FB20461E
:102C5000FFF7D0F900288AD00020A8E704ED00E0B3
:102C600070B506460C46FFF7D7FB1348026870683C
:102C7000131A2068401C08B9002519E00F49306874
:102C80000968884206D07068904203D80125002068
:102C900020600DE02068984207D92068C01A2060A3
:102CA0003046FFF7EDFC002502E000202060012502
:102CB000FFF7C4FB284670BD30010020440100200E
:102CC0002DE9FF4F85B0804689461746DDE912ABF6
:102CD000B800FFF72FFA064656B14C20FFF72AFA44
:102CE00004460CB1266304E03046FFF7B7FB00E072
:102CF00000247CB10020CDE900ABCDE902403A468A
:102D000049464046089BFFF7C8F82046FEF774FF87
:102D1000012501E04FF0FF35284609B0BDE8F08FEE
:102D20002DE9F04F05460C46DDE909674FF0010932
:102D3000294600BF4FF0BF0AEFF311808AF31188D4
:102D4000BFF34F8FBFF36F8F00BF804626B101F1F5
:102D5000440050F82400306001F1480010F804C02D
:102D60004FF0020A00F804A0052B29D2DFE803F097
:102D700027030D171C0001F1440050F824001043F4
:102D800001F1440A4AF824001BE001F1440050F824
:102D90002400401C01F1440A4AF8240011E001F12A
:102DA000440040F824200CE0BCF1020F04D001F1F3
:102DB000440040F8242001E04FF0000901E000E069
:102DC00000BF00BFBCF1010F7ED14D480068002854
:102DD0005FD14869D1E902ABCAF808B0D1E902BABB
:102DE000CAF804B001F1040AD0F804B0D34503D105
:102DF000D1F80CA0C0F804A04FF0000BC1F814B03B
:102E0000D0F800A0AAF1010AC0F800A091F82CA007
:102E1000012000FA0AF0DFF8ECA0DAF800A040EA9E
:102E20000A00DFF8E0A0CAF80000D1F82CA00AEBF5
:102E30008A0ADFF8D4B00BEB8A0ADAF8040088605B
:102E4000D0F808B0C1F80CB001F1040AD0F808B00D
:102E5000CBF804A0C0F808A0D1F82CA00AEB8A0A8D
:102E6000DFF8A4B00BEB8A0BC1F814B0D1F82CA09A
:102E70000AEB8A0ADFF890B05BF82AA00AF1010A8F
:102E8000D1F82CB00BEB8B0BDFF87CE04EF82BA0CD
:102E90001EE0DFF878A0DAF80400C861D0F808B0C6
:102EA000C1F820B001F1180AD0F808B0CBF804A09E
:102EB000C0F808A0DFF854B0C1F828B0DA46DAF854
:102EC00000A00AF1010A00E013E0CBF800A000BF67
:102ED000DFF83CA0C86ADAF800A0DAF82CA0504568
:102EE00007D90FB1012038600120DFF828A0CAF807
:102EF000000000BF88F3118800BF4846BDE8F08F8E
:102F00005801002034010020804500200C4600209C
:102F10001C010020400100202DE9F04704460F4627
:102F200090461D46DDF82090FFF776FA23480068AA
:102F30004830005D02281AD020490968443101EB6D
:102F400084000168B943016001211C4800684830D1
:102F50000155B9F1000F0AD04846FEF7EDFD4FF0DC
:102F6000805017490860BFF34F8FBFF36F8FFFF793
:102F700065FAFFF751FA2DB110480068443050F857
:102F8000240028600D4800684830005D022801D008
:102F9000002609E009490968443101EB8400016811
:102FA00021EA080101600126002104480068483038
:102FB0000155FFF743FA3046BDE8F0871C010020B9
:102FC00004ED00E02DE9F041002757480068002893
:102FD0007ED156480068451C544805608DB9544858
:102FE000D0F8008053480068514908605148C0F843
:102FF000008051480068401C4F490860FFF716F8F0
:1030000000BF4E480068854276D300BF484800683C
:10301000006808B9012000E0002020B14FF0FF3027
:103020004649086067E042480068C068C46866684E
:10303000B54202D2414806605DE06069D4E90212FF
:103040008A60D4E902214A60211D42688A4201D186
:10305000E1684160002262610168491E0160A06A66
:1030600098B1A06AD4E907128A60D4E907214A60BE
:1030700004F1180142688A4201D1216A41600022AC
:10308000A2620168491E016000BF94F82C10012063
:1030900088402B490968084329490860E16A01EB27
:1030A0008101284A02EB81014868A0608268E260E1
:1030B000211D826851608160E16A01EB8101214A32
:1030C00002EB81026261E16A01EB81011D4A00E0CD
:1030D00022E052F82110491CE26A02EB8202194BED
:1030E00043F822101849E06A0968C96A88428DD3FA
:1030F00001278BE700E000BF13480068C06A00EBBF
:103100008000104951F82000012800D901270F48FC
:10311000006800B1012704E00D480068401C0C491C
:1031200008603846BDE8F0815801002030010020D9
:103130002001002024010020440100204C01002037
:1031400034010020804500201C01002040010020A7
:103150003C01002070B50346D868C168886AD1E98F
:103160000745A560D1E90754656001F11804456879
:10317000A54201D10C6A446000258D620468641E7A
:1031800004603048006800283DD14869D1E9024513
:10319000A560D1E9025465600C1D4568A54201D1C6
:1031A000CC68446000254D610468641E046091F899
:1031B0002C400120A040244C24682043224C206055
:1031C000CC6A04EB8404214D05EB840460688860BC
:1031D0008568CD600C1D85686C608460CC6A04EBEA
:1031E00084041A4D05EB84054D61CC6A04EB84041C
:1031F000164D55F82440641CCD6A05EB8505134E29
:1032000046F8254010E0124C6068C86185680D6280
:1032100001F1180485686C6084600D4D8D622C4648
:103220002468641C2C6000BF0A4CC86A2468E46AE5
:10323000A04204D901220120074C206000E00022B6
:10324000104670BD58010020340100208045002048
:103250000C4600201C0100204001002070B5002415
:103260000026FFF7D9F84B480068401E494908601E
:103270000846006800287DD147480068002879D0BA
:103280005BE04648C068C468A06AD4E907128A6057
:10329000D4E907214A6004F1180142688A4201D149
:1032A000216A41600022A2620168491E01606069D2
:1032B000D4E902128A60D4E902214A60211D4268E1
:1032C0008A4201D1E1684160002262610168491EC1
:1032D000016094F82C1001208840314909680843A6
:1032E0002F490860E16A01EB81012E4A02EB81015E
:1032F0004868A0608268E260211D82685160816038
:10330000E16A01EB8101274A02EB81026261E16A15
:1033100001EB8101234A52F82110491CE26A02EBB9
:103320008202204B43F822101F49E06A0968C96AEB
:10333000884202D301201D4908601848006808B976
:10334000012000E0002000289BD00CB1FEF76EFEAB
:103350001748056865B100BFFFF734FE10B10120C2
:10336000124908606D1E002DF6D10020104908603A
:103370000E4800E009E0006838B1012630070D4929
:103380000860BFF34F8FBFF36F8FFFF757F83046DA
:1033900070BD0000580100202C0100200C460020C8
:1033A00034010020804500201C0100204001002045
:1033B0003C01002004ED00E00D0A506572696F6465
:1033C000206F6620764765744461746144485431C7
:1033D000315461736B2063757272656E743A256443
:1033E0002873290909090D0A506572696F64206FF5
:1033F00066207647657444617461445331384232C3
:10340000305461736B2063757272656E743A256413
:1034100028732900343400080000002060010000F7
:10342000DC020008C034000860010020E848000009
:10343000101800084123D00723B80B1829090D0ADA
:103440004368616E676520706572696F64206F669E
:103450002076476574446174614448543131546145
:10346000736B09202D010C1B3E20312E2F53313858
:1034700042323030592F1A322F1E455849542001FC
:103480009A0901291059231A3023001A24547970FB
:103490006520796F7572206F707074696F6E206827
:1034A000657265203A202D010203040400093C06E0
:1034B000070809020406081AAA010138B20400002C
:040000050800019D51
:00000001FF
