:020000040800F2
:100000001804002005010008FD020008F5020008A0
:10001000F90200084D010008DD060008000000009C
:10002000000000000000000000000000C104000803
:100030005101000800000000FF02000879060008D6
:100040001F0100081F0100081F0100081F01000810
:100050001F0100081F0100081F0100081F01000800
:100060001F0100081F0100081F0100081F010008F0
:100070001F0100081F0100081F0100081F010008E0
:100080001F0100081F0100081F0100081F010008D0
:100090001F0100081F0100081F0100081F010008C0
:1000A0001F0100081F0100081F0100081F010008B0
:1000B0001F0100081F0100081F0100081F010008A0
:1000C0001F0100081F0100081F0100081F01000890
:1000D0001F0100081F0100081F0100081F01000880
:1000E0001F0100081F0100081F010008DFF810D0E1
:1000F00000F01AF800480047FF060008AFF3008040
:10010000180400200648804706480047FEE7FEE73F
:10011000FEE7FEE7FEE7FEE7FEE7FEE7FEE7FEE7B7
:100120007D060008ED000008064C074D06E0E0687B
:1001300040F0010394E8070098471034AC42F6D32E
:10014000FFF7D8FF240700084407000800BFFEE7B8
:100150007047000008B510208DF803004FF4607060
:10016000ADF8000003208DF802000121042000F00A
:10017000C7F86946074800F025F848208DF80300C5
:100180004FF47050ADF800006946024800F01AF8CC
:1001900008BD00000008014008B510208DF80300DC
:1001A0007F20ADF8000003208DF80200012104201B
:1001B00000F0A6F86946024800F004F808BD000007
:1001C000000801402DE9F0410246002500260020EC
:1001D00000230024002791F803C00CF00F0591F8CC
:1001E00003C00CF0100CBCF1000F03D091F802C05A
:1001F0004CEA050591F800C0BCF1000F31D014683D
:1002000000202BE04FF0010C0CFA00F3B1F800C015
:100210000CEA03069E4220D183004FF00F0C0CFA2B
:1002200003F7BC4305FA03FC4CEA040491F803C04D
:10023000BCF1280F06D14FF0010C0CFA00FCC2F8FB
:1002400014C00AE091F803C0BCF1480F05D14FF08B
:10025000010C0CFA00FCC2F810C0401C0828D1D3D5
:100260001460B1F800C0BCF1FF0F34DD5468002009
:100270002EE000F1080C4FF0010808FA0CF3B1F879
:1002800000C00CEA03069E4221D183004FF00F0C00
:100290000CFA03F7BC4305FA03FC4CEA040491F89A
:1002A00003C0BCF1280F05D100F1080C08FA0CF8C6
:1002B000C2F8148091F803C0BCF1480F07D100F1D7
:1002C000080C4FF0010808FA0CF8C2F81080401C26
:1002D0000828CED35460BDE8F08102460020936820
:1002E0000B400BB1012000E00020704741617047D6
:1002F0000161704700BFFEE700BFFEE7704770472F
:1003000029B1064A92690243044B9A6104E0034A08
:1003100092698243014B9A617047000000100240CD
:1003200010B580216548FFF7E1FF4FF48071634805
:10033000FFF7DEFF4FF400716048FFF7D9FF4FF47D
:1003400080615E48FFF7C9FF48B900BF4FF4806184
:100350005A48FFF7C2FF0028F8D0012010BD4FF423
:1003600000615648FFF7B9FF48B900BF4FF400617C
:100370005248FFF7B2FF0028F8D00420EEE74FF410
:1003800080514E48FFF7A9FF48B900BF4FF4805194
:100390004A48FFF7A2FF0028F8D00720DEE74FF415
:1003A00080714648FFF7A2FF80214448FFF7A0FF75
:1003B0004FF400714148FFF79BFF4FF480613F48C5
:1003C000FFF78BFF48B900BF4FF480613B48FFF750
:1003D00084FF0028F8D00220C0E74FF400613748BE
:1003E000FFF77BFF48B900BF4FF400613348FFF7C8
:1003F00074FF0028F8D00520B0E74FF480512F4853
:10040000FFF76BFF48B900BF4FF480512B48FFF74F
:1004100064FF0028F8D00820A0E74FF400512748D7
:10042000FFF75BFF48B900BF4FF400512348FFF7C7
:1004300054FF0028F8D0002090E74FF400711F48C7
:10044000FFF754FF4FF480711C48FFF751FF8021E4
:100450001A48FFF74DFF4FF480611848FFF73DFF42
:1004600048B900BF4FF480611448FFF736FF0028F9
:10047000F8D0032072E74FF400611048FFF72DFF1A
:1004800048B900BF4FF400610C48FFF726FF002871
:10049000F8D0062062E74FF480510848FFF71DFFAF
:1004A00048B900BF4FF480510448FFF716FF0028F9
:1004B000F8D0092052E70A2050E700000008014068
:1004C000704710B500F002F810BD00000CB5002018
:1004D000019000903348006840F480303149086052
:1004E00000BF3048006800F4003000900198401CC4
:1004F0000190009818B90198B0F5A06FF1D1294882
:10050000006800F4003010B10120009001E00020EC
:1005100000900098012843D12348006840F0100063
:10052000214908600846006820F00300086008467A
:10053000006840F0020008601A48406819494860A5
:100540000846406848600846406840F4806048605B
:100550000846406820F47C1048600846406840F433
:10056000E81048600846006840F08070086000BFEE
:100570000C48006800F000700028F9D00948406875
:1005800020F00300074948600846406840F0020038
:10059000486000BF0348406800F00C000828F9D10B
:1005A0000CBD0000001002400020024070B505465E
:1005B00000242F4830F8154004F0010020B101213B
:1005C0002C48FFF795FE03E001212A48FFF78EFE35
:1005D000641004F0010020B102212648FFF788FED4
:1005E00003E002212348FFF781FE641004F00100BC
:1005F00020B104211F48FFF77BFE03E004211D48C2
:10060000FFF774FE641004F0010020B108211948BE
:10061000FFF76EFE03E008211648FFF767FE64103F
:1006200004F0010020B110211248FFF761FE03E041
:1006300010211048FFF75AFE641004F0010020B1A9
:1006400020210C48FFF754FE03E020210948FFF762
:100650004DFE641004F0010020B140210548FFF771
:1006600047FE03E040210348FFF740FE70BD000055
:1006700000000020000801407047000010B513483A
:10068000006840F0010011490860084640681049C0
:1006900008400E494860084600680E4908400B496A
:1006A00008600846006820F480200860084640681A
:1006B00020F4FE0048604FF41F008860FFF701FF40
:1006C0004FF000600449086010BD000000100240B7
:1006D0000000FFF8FFFFF6FE08ED00E000BFFEE7B8
:1006E00002E008C8121F08C1002AFAD170477047FB
:1006F000002001E001C1121F002AFBD17047002435
:10070000FFF74AFDFFF726FD0020FFF74FFF07E048
:10071000FFF706FE04460A2C02DA2046FFF746FFE2
:10072000F6E7000044070008000000201400000065
:10073000E006000858070008140000200404000028
:10074000F0060008C000F900A400B0009900920073
:080750008200F8008000900017
:0400000508000105E9
:00000001FF
