:020000040800F2
:100000006804002005010008CD080008B9030008B5
:10001000C908000879010008230D0008000000004D
:10002000000000000000000000000000190A0008A5
:100030007902000800000000CF080008C50B000886
:100040001F0100081F0100081F0100081F01000810
:100050001F0100081F0100081F0100081F01000800
:100060001F0100081F0100081F0100081F010008F0
:100070001F0100081F0100081F0100081F010008E0
:100080001F0100081F0100081F0100081F010008D0
:100090001F0100081F0100081F0100081F010008C0
:1000A0001F0100081F0100081F0100081F010008B0
:1000B0001F0100081F0100081F0100081F010008A0
:1000C0001F0100081F0100081F0100081F01000890
:1000D0001F0100081F0100081F0100081F01000880
:1000E0001F0100081F0100081F010008DFF810D0E1
:1000F00000F030F800480047D10E0008AFF3008050
:10010000680400200648804706480047FEE7FEE7EF
:10011000FEE7FEE7FEE7FEE7FEE7FEE7FEE7FEE7B7
:10012000C90B0008ED00000830B50B460146002061
:100130002022012409E021FA02F59D4205D303FAA9
:1001400002F5491B04FA02F52844151EA2F101022A
:10015000F1DC30BD064C074D06E0E06840F00103DD
:1001600094E8070098471034AC42F6D3FFF7C2FF7B
:10017000BC0F0008DC0F000800BFFEE7014601F0DD
:100180000F000A0902EB820200EB4200C0B2704786
:1001900010B5042000F01EF80446FFF7EFFF10BD75
:1001A00010B5022000F016F800F03F042046FFF7DB
:1001B000E5FF10BD10B5012000F00CF80446FFF774
:1001C000DDFF10BD10B5052000F004F80446FFF770
:1001D000D5FF10BD70B504462246D021044800F07A
:1001E000F9FAD021024800F0D9FA0546284670BD38
:1001F0000058004010B50020FFF7ECFF00F07F042E
:100200002046FFF7BBFF10BD70B51020FFF7E2FFDF
:10021000642100FB01F40620FFF7DCFF0546FFF731
:10022000ADFF204470BD10B5002000F001F810BDF6
:1002300070B504460CB1802000E000200646002086
:10024000FFF7C8FF00F07F0040EA060529460020BE
:1002500000F002F870BD000038B505460C468DF878
:1002600000508DF8014002236A46D021014800F079
:10027000C2FA38BD00580040704710B504460DE082
:1002800000214FF0804000F0DEFC00BF4FF08040C6
:1002900000F0D6FCB0F57A7FF8D3641E002CEFD1C5
:1002A00010BD2DE9F0410246002500260020002364
:1002B0000024002791F803C00CF00F0591F803C04B
:1002C0000CF0100CBCF1000F03D091F802C04CEA06
:1002D000050591F800C0BCF1000F31D01468002072
:1002E0002BE04FF0010C0CFA00F3B1F800C00CEA5F
:1002F00003069E4220D183004FF00F0C0CFA03F747
:10030000BC4305FA03FC4CEA040491F803C0BCF1B9
:10031000280F06D14FF0010C0CFA00FCC2F814C0F3
:100320000AE091F803C0BCF1480F05D14FF0010C71
:100330000CFA00FCC2F810C0401C0828D1D314608D
:10034000B1F800C0BCF1FF0F34DD546800202EE08E
:1003500000F1080C4FF0010808FA0CF3B1F800C0E6
:100360000CEA03069E4221D183004FF00F0C0CFAD9
:1003700003F7BC4305FA03FC4CEA040491F803C0FC
:10038000BCF1280F05D100F1080C08FA0CF8C2F8EE
:10039000148091F803C0BCF1480F07D100F1080C9C
:1003A0004FF0010808FA0CF8C2F81080401C082829
:1003B000CED35460BDE8F08100BFFEE721B10288D2
:1003C00042F48062028004E002884FF6FF331A4054
:1003D0000280704770B502460024002500230020EB
:1003E000958A138B1B0445EA030626F07F4404EA32
:1003F00001068E4201D1012000E0002070BD21B134
:10040000028842F00102028004E002884FF6FE7387
:100410001A4002807047000000B585B001218805B0
:1004200000F056FA0121082000F062FA4FF4406013
:10043000ADF8100003208DF812001C208DF8130079
:1004400004A91048FFF72DFF0020ADF804004BF67B
:10045000FF70ADF806004FF48060ADF80A00002090
:10046000ADF808004FF48040ADF80C00064800904D
:100470006946064800F042F801210448FFF7BFFF33
:1004800005B000BD000C0140A086010000580040EE
:1004900021B1028842F48072028004E002884FF6A3
:1004A000FF631A400280704721B1028842F4007253
:1004B000028004E002884FF6FF531A400280704722
:1004C0000CB50246002000230193009300920B0F0D
:1004D000019321F07F41019B1BB1009B14330093DA
:1004E00003E0090C009B18330093009B1B680B4032
:1004F0000BB1012000E000200CBD00002DE9F0430D
:1005000085B004460D460026B1460427DFF8CC80AE
:10051000A6884FF6C0700640684600F0F9F9DDF88D
:1005200008802F48B8FBF0F01FFA80F946EA090668
:10053000A68020884FF6FE710840208000262949B9
:10054000286888420CD828684000B8FBF0F087B2D1
:10055000042F00DA04273E4309F10100208427E03C
:10056000E8884BF6FF71884206D1286800EB40000E
:10057000B8FBF0F087B209E0286800EBC00101EB9E
:100580000010B8FBF0F087B247F48047C7F30B00C8
:1005900008B947F0010747F4004006434FF496704E
:1005A00009FB00F04FF47A7190FBF1F0401C2084BD
:1005B000A683208840F00100208026884FF6F53081
:1005C0000640A8886989084306432680A8892989A6
:1005D0000843208105B0BDE8F083000000127A00D6
:1005E00040420F00A086010010B504461CB1012056
:1005F0000449C87002E000200249C87000F00AF8FF
:1006000010BD00001400002010B5012000F076F8A5
:1006100010BD000010B500240EE00C48007840101A
:100620000A4908700A48005D20B10846007840F089
:1006300080000870601CC4B2082CEEDB034802780E
:100640004E21044800F0C6F810BD00001C00002038
:10065000140000200058004010B53220FFF70DFEB6
:10066000002404E000201A490855601CC4B2082C7C
:10067000F8DBFFF7CFFF002015490870FFF7CAFF2E
:10068000002013494870FFF7C5FF032000F04EF823
:100690000520FFF7F2FD032000F048F80120FFF7E6
:1006A000ECFD032000F042F80120FFF7E6FD0220F8
:1006B00000F03CF80120FFF7E0FD282000F01EF8D4
:1006C0000C2000F01BF8012000F018F810BD00000D
:1006D0001400002010B5C02000F010F810BD10B5B7
:1006E000044607E0207820B114F8010B00F0D4F89C
:1006F00000E000E0F6E700BF10BD000010B50446C2
:1007000000F094F8002008490870FFF783FF0020EC
:1007100005494870FFF77EFF201100F007F82046DA
:1007200000F004F810BD00001400002010B50446CD
:1007300004F0080018B101201749C87102E0002038
:100740001549C87104F0040018B1012012498871DC
:1007500002E000201049887104F0020018B1012065
:100760000D49487102E000200B49487104F0010076
:1007700018B101200849087102E0002006490871FB
:10078000012005498870FFF745FF00200249887065
:10079000FFF740FF10BD00001400002070B50446B4
:1007A0000D462946204600F0C7F9204600F01AF908
:1007B0000646304670BD0146088AC0B2704712B185
:1007C00041F0010102E04FF6FE73194001827047CB
:1007D0000182704770B505460E46144631462846DC
:1007E00000F0CCF92146284600F018F901212846EE
:1007F000FFF75AFE70BD2DE9F041074688461546C1
:100800001E464146384600F0B9F9002405E0295D4E
:10081000384600F003F9601CC4B2B442F7DB012192
:100820003846FFF741FEBDE8F081000010B5012019
:100830001749087148718871C871FFF7EBFE0020F5
:1008400013490870FFF7E6FE012011494870FFF7D1
:10085000E1FE00BF01200E498870FFF7DBFE4E214C
:100860000C48FFF79BFF0446002009498870FFF7FA
:10087000D1FE012006498870FFF7CCFE0020044914
:100880008870FFF7C7FE04F008000028E2D110BD11
:10089000140000200058004010B50446FFF7C6FFC2
:1008A000012008490870FFF7B5FE0020054948708F
:1008B000FFF7B0FE2011FFF739FF2046FFF736FFA4
:1008C00010BD00001400002000BFFEE77047704715
:1008D00029B1064AD2690243044BDA6104E0034AB3
:1008E000D2698243014BDA61704700000010024078
:1008F00029B1064A92690243044B9A6104E0034A13
:1009000092698243014B9A617047000000100240D7
:1009100030B500210022002400232D4D6D6805F024
:100920000C0121B1042905D0082923D105E0294D66
:10093000056022E0274D05601FE0254D6D6805F438
:100940007012234D6D6805F48034022505EB924248
:100950001CB9214D554305600BE01D4D6D6805F434
:1009600000351DB11C4D5543056002E0194D55433E
:10097000056002E0174D056000BF00BF144D6D68B3
:1009800005F0F0010909154D6B5C0568DD40456017
:100990000F4D6D6805F4E061090A104D6B5C456808
:1009A000DD4085600A4D6D6805F46051C90A0B4D44
:1009B0006B5C4568DD40C560054D6D6805F44041E0
:1009C000890B074D6B5CC568B5FBF3F5056130BD60
:1009D0000010024000127A0000093D0000000020D3
:1009E0001000002070B5044600212046FFF7E6FC09
:1009F00001212046FFF758FD00BF06492046FFF7BA
:100A0000E9FC0028F9D02046FFF7D5FE0546284628
:100A100070BD0000400003007047000070B5044640
:100A20000D4600BF08492046FFF74AFD0028F9D0CF
:100A300029462046FFF7CCFE00BF04492046FFF7B9
:100A4000C9FC0028F9D070BD8000001084000700A8
:100A500010B500F001F810BD0CB500200190009019
:100A60003348006840F480303149086000BF3048A6
:100A7000006800F4003000900198401C019000983C
:100A800018B90198B0F5A06FF1D12948006800F4B9
:100A9000003010B10120009001E00020009000988B
:100AA000012843D12348006840F010002149086024
:100AB0000846006820F0030008600846006840F01F
:100AC000020008601A4840681949486008464068B2
:100AD00048600846406840F48060486008464068C6
:100AE00020F47C1048600846406840F4E8104860F4
:100AF0000846006840F08070086000BF0C4800683D
:100B000000F000700028F9D00948406820F0030088
:100B1000074948600846406840F00200486000BF4E
:100B20000348406800F00C000828F9D10CBD000013
:100B3000001002400020024070B504460D4600211E
:100B40002046FFF73BFC01212046FFF7A1FC00BF38
:100B500009492046FFF73EFC0028F9D0012229462A
:100B60002046FFF72CFE00BF0349491C2046FFF733
:100B700031FC0028F8D070BD0100030070B50446B8
:100B80000D4600212046FFF719FC01212046FFF702
:100B90007FFC00BF09492046FFF71CFC0028F9D064
:100BA000002229462046FFF70AFE00BF04492046DE
:100BB000FFF710FC0028F9D070BD00000100030011
:100BC000820007007047000010B51348006840F02D
:100BD00001001149086008464068104908400E4964
:100BE0004860084600680E4908400B4908600846FE
:100BF000006820F4802008600846406820F4FE0069
:100C000048604FF41F008860FFF722FF4FF000603C
:100C10000449086010BD0000001002400000FFF809
:100C2000FFFFF6FE08ED00E021B1028842F001026C
:100C3000028004E002884FF6FE731A40028070477B
:100C40000146888C7047818470470000002202882A
:100C50001D4B98420ED01D4B98420BD0B0F1804FE7
:100C600008D01B4B984205D01A4B984202D01A4B21
:100C7000984204D14FF68F731A404B881A43174B92
:100C8000984207D0164B984204D04FF6FF431A40C3
:100C9000CB881A4302808B8883850B8803850A4B97
:100CA00098420BD0094B984208D00E4B984205D081
:100CB0000D4B984202D00D4B984201D10B7A03861E
:100CC0000123838270470000002C01400034014062
:100CD0000004004000080040000C004000100040EC
:100CE0000014004000400140004401400048014021
:100CF0000EB501210846FFF7EBFD0020ADF802001C
:100D00004FF6FF70ADF804004720ADF800006946CB
:100D10004FF08040FFF79AFF01218807FFF784FF1B
:100D20000EBD00BFFEE700000FB4084B10B504A9CC
:100D300002AA039800F01CF8044602A9002000F063
:100D4000C1F8204610BC5DF814FB0000C50E000879
:100D500002E008C8121F08C1002AFAD17047704784
:100D6000002001E001C1121F002AFBD170470000E2
:100D70002DE9FF4F89B09B460446002506E0252853
:100D80000BD05A460B999047641C6D1C20780028A4
:100D9000F5D10DB02846BDE8F08F0027B8460122F6
:100DA000474900E0074314F8013F203B02FA03F0F3
:100DB0000842F7D120782E2819D114F8010F47F0F6
:100DC00004072A280ED06FF02F022078A0F13001FE
:100DD00009290CD808EB880102EB410100EB01085E
:100DE000641CF2E70A98641C50F8048B0A9020787F
:100DF0000028CED0642808D0692806D075281ED0D7
:100E00005A460B9990476D1C58E00A994FF00A0911
:100E100001C90A91002802DA40422D2102E0390579
:100E200004D52B218DF82010012103E0F90704D00F
:100E30002021F7E78A4608AE0DE00021FAE70A997B
:100E40004FF00A0901C90A91F7E74946FFF76CF923
:100E5000303106F8011D0028F7D1ADEB060000F196
:100E60002009780701D44FF00108C84502DDA8EB3E
:100E7000090000E000208046002706E008A85A4646
:100E8000C05D0B9990476D1C7F1C5745F6DB04E055
:100E900030205A460B9990476D1CB8F10001A8F11B
:100EA0000108F5DC05E016F8010B5A460B9990474E
:100EB0006D1CB9F10001A9F10109F4DC641C65E7BE
:100EC000092801000A68531C0B601070704700006D
:100ED000FFF70EFFFFF7A0FAFFF7A5F9FFF7BCFB3E
:100EE000FFF792FB0120FFF77FFB53E0FFF750F97C
:100EF0000446224628A12948FFF716FFFFF762F9AA
:100F000005462A4624A12648FFF70EFFFFF77CF985
:100F10000646324620A12348FFF706FFFFF740F9B7
:100F200007463A461CA12048FFF7FEFEFFF742F9AC
:100F30008046424618A11D48FFF7F6FEFFF75AF912
:100F400081464A4614A11A48FFF7EEFE1348FFF700
:100F5000C6FB18A0FFF7C3FB1148FFF7C0FB15A0A5
:100F6000FFF7BDFB0F48FFF7BAFBFFF7B3FB0E48D7
:100F7000FFF7B5FB10A0FFF7B2FB0C48FFF7AFFB84
:100F80000DA0FFF7ACFB0A48FFF7A9FB0220FFF713
:100F9000B5FB00BFAAE70000256400002000002088
:100FA0002A000020340000204800002052000020C9
:100FB0005C0000202D0000003A000000DC0F00085B
:100FC0000000002020000000500D0008FC0F000869
:100FD0002000002048040000600D00080000000010
:100FE00001020304010203040607080902040608BB
:0C0FF000000000000000000000000000F5
:0400000508000105E9
:00000001FF
