:020000040800F2
:1000000010050020050100085F04000857040008DF
:100010005B04000889010008E508000800000000F2
:10002000000000000000000000000000590500086A
:100030008D0100080000000061040008450600086A
:100040001F0100081F0100081F0100081F01000810
:100050001F0100081F0100081F0100081F01000800
:100060001F0100081F0100081F0100081F010008F0
:100070001F0100081F0100081F0100081F010008E0
:100080001F0100081F0100081F0100081F010008D0
:100090001F0100081F0100081F0100081F010008C0
:1000A0001F0100081F0100081F0100081F010008B0
:1000B0001F0100081F0100081F0100081F010008A0
:1000C0001F0100081F0100081F0100081F01000890
:1000D0001F0100081F0100081F0100081F01000880
:1000E0001F0100081F0100081F010008DFF810D0E1
:1000F00000F038F800480047910A0008AFF300808C
:10010000100500200648804706480047FEE7FEE746
:10011000FEE7FEE7FEE7FEE7FEE7FEE7FEE7FEE7B7
:1001200049060008ED000008421C10F8011B0029D8
:10013000FBD1801A704730B50B46014600202022C3
:10014000012409E021FA02F59D4205D303FA02F5E4
:10015000491B04FA02F52844151EA2F10102F1DC44
:1001600030BD0000064C074D06E0E06840F001039A
:1001700094E8070098471034AC42F6D3FFF7BAFF73
:100180004C0B00086C0B000800BFFEE77047000036
:1001900010E00A494FF0E0225161002191610521F0
:1001A000116100BF4FF0E021096901F4803100299D
:1001B000F8D0401E0028ECD1704700003F19010024
:1001C0001CB50121084600F04DF90021084600F059
:1001D00097F8012000F010F804208DF804000120A9
:1001E00000900C208DF8050001208DF8060068466F
:1001F00000F008F81CBD00000149086070470000CD
:1002000014040140002123498279002A3AD00A4689
:10021000126803689A430B461A600A1D1268036845
:100220009A430B1D1A60027911440A6803681A4345
:100230000A60184A0832126803689A43154B08335B
:100240001A601A1D126803689A43124B0C331A6025
:100250004279102A0ED11A1F126803681A430D4BF7
:1002600008331A601A1D126803681A43094B0C33CD
:100270001A600DE00749427911440A6803681A437D
:100280000A6005E0027911440A6803689A430A602B
:10029000704700000004014008B548208DF80300B5
:1002A0000120ADF800000121042000F0DBF86946D0
:1002B000014800F045F808BD0008014008B50121DB
:1002C000052000F0CFF84FF48060ADF80000042066
:1002D0008DF803006946094800F032F84FF40070C9
:1002E000ADF8000003208DF8020018208DF80300FF
:1002F0006946024800F024F808BD000000080140EB
:1003000030B500228B071C0F0F2303FA04F20B4BAE
:100310008C1053F824309343084C8D1044F825304A
:1003200023468C1053F824308C07240F00FA04F471
:100330002343024C8D1044F8253030BD08000140A5
:100340002DE9F0410246002500260020002300246C
:10035000002791F803C00CF00F0591F803C00CF0D2
:10036000100CBCF1000F03D091F802C04CEA050557
:1003700091F800C0BCF1000F31D0146800202BE0D0
:100380004FF0010C0CFA00F3B1F800C00CEA0306C0
:100390009E4220D183004FF00F0C0CFA03F7BC43B0
:1003A00005FA03FC4CEA040491F803C0BCF1280FE1
:1003B00006D14FF0010C0CFA00FCC2F814C00AE0A0
:1003C00091F803C0BCF1480F05D14FF0010C0CFAB5
:1003D00000FCC2F810C0401C0828D1D31460B1F84A
:1003E00000C0BCF1FF0F34DD546800202EE000F1A6
:1003F000080C4FF0010808FA0CF3B1F800C00CEA41
:1004000003069E4221D183004FF00F0C0CFA03F734
:10041000BC4305FA03FC4CEA040491F803C0BCF1A8
:10042000280F05D100F1080C08FA0CF8C2F8148066
:1004300091F803C0BCF1480F07D100F1080C4FF050
:10044000010808FA0CF8C2F81080401C0828CED326
:100450005460BDE8F08100BFFEE700BFFEE77047D3
:100460007047000029B1064A92690243044B9A6121
:1004700004E0034A92698243014B9A61704700008D
:100480000010024030B500210022002400232D4D31
:100490006D6805F00C0121B1042905D0082923D18C
:1004A00005E0294D056022E0274D05601FE0254D40
:1004B0006D6805F47012234D6D6805F480340225D3
:1004C00005EB92421CB9214D554305600BE01D4DD3
:1004D0006D6805F400351DB11C4D5543056002E003
:1004E000194D5543056002E0174D056000BF00BF80
:1004F000144D6D6805F0F0010909154D6B5C056838
:10050000DD4045600F4D6D6805F4E061090A104D4E
:100510006B5C4568DD4085600A4D6D6805F460518F
:10052000C90A0B4D6B5C4568DD40C560054D6D68C3
:1005300005F44041890B074D6B5CC568B5FBF3F5CD
:10054000056130BD0010024000127A0000093D0034
:100550000000002010000020704710B500F002F8E5
:1005600010BD00000CB500200190009033480068D9
:1005700040F480303149086000BF3048006800F422
:10058000003000900198401C0190009818B9019823
:10059000B0F5A06FF1D12948006800F4003010B127
:1005A0000120009001E0002000900098012843D134
:1005B0002348006840F010002149086008460068A0
:1005C00020F0030008600846006840F00200086060
:1005D0001A4840681949486008464068486008461B
:1005E000406840F4806048600846406820F47C1011
:1005F00048600846406840F4E810486008460068D3
:1006000040F08070086000BF0C48006800F0007087
:100610000028F9D00948406820F0030007494860E5
:100620000846406840F00200486000BF0348406848
:1006300000F00C000828F9D10CBD000000100240A9
:10064000002002407047000010B51348006840F0D9
:1006500001001149086008464068104908400E49E9
:100660004860084600680E4908400B490860084683
:10067000006820F4802008600846406820F4FE00EE
:1006800048604FF41F008860FFF767FF4FF000607D
:100690000449086010BD0000001002400000FFF88F
:1006A000FFFFF6FE08ED00E01FB501218803FFF70C
:1006B000D9FE4FF4165000900020ADF80400ADF8BC
:1006C0000600ADF80800ADF80C000C20ADF80A00EB
:1006D0006946174800F07AF82021154800F02EF8F6
:1006E000012240F22551124800F04AF82520052148
:1006F000002807DA0A07140E0E4A00F00F031B1F2A
:10070000D45403E00A07130E0B4A135400BF2520EC
:1007100000F01F02012191404209920002F1E02203
:10072000C2F8001100BF0121014800F010F81FBD00
:100730000038014018ED00E000E400E001F4007230
:10074000B2F5007F00D100BFCA430280704721B1DB
:10075000828942F40052828104E082894DF6FF735F
:100760001A408281704702460020B1F5007F00D117
:1007700000BF13880B400BB1012000E00020704740
:10078000F0B50346002400260025002040F66A1735
:10079000B94200D100BF1846C1F3421401F01F0650
:1007A000012707FA06F5012C01D10C3004E0022CD8
:1007B00001D1103000E014301AB107682F430760F0
:1007C00002E00768AF430760F0BD00002DE9F04785
:1007D00086B005460E460024A24600BFA14600276B
:1007E000B08900B100BF2F462C8A4CF6FF70044040
:1007F000F08804432C82AC894EF6F3100440B08894
:1008000031890843718908430443AC81AC8A4FF6AF
:10081000FF400440B0890443AC8201A8FFF732FED8
:100820001F48874202D1DDF810A001E0DDF80CA0DE
:10083000A88900F4004040B10AEBCA0000EB0A109E
:1008400031684900B0FBF1F807E00AEBCA0000EBA1
:100850000A1031688900B0FBF1F86420B8FBF0F0B1
:1008600004012009642101FB1089A88900F40040DB
:1008700040B1322000EBC900B0FBF1F000F00700FE
:10088000044308E0322000EB09106421B0FBF1F0D2
:1008900000F00F0004432C8106B0BDE8F087000093
:1008A0000038014070B504460D4600BF8021204647
:1008B000FFF759FF0028F9D02946204600F00EF82E
:1008C00070BD70B505460C4604E021782846FFF758
:1008D000E9FF641C20780028F7D170BDC1F308023D
:1008E0008280704700BFFEE70FB4084B10B504A923
:1008F00002AA039800F01CF8044602A9002000F0A8
:10090000C1F8204610BC5DF814FB0000850A000801
:1009100002E008C8121F08C1002AFAD170477047C8
:10092000002001E001C1121F002AFBD17047000026
:100930002DE9FF4F89B09B460446002506E0252897
:100940000BD05A460B999047641C6D1C20780028E8
:10095000F5D10DB02846BDE8F08F0027B84601223A
:10096000474900E0074314F8013F203B02FA03F037
:100970000842F7D120782E2819D114F8010F47F03A
:1009800004072A280ED06FF02F022078A0F1300142
:1009900009290CD808EB880102EB410100EB0108A2
:1009A000641CF2E70A98641C50F8048B0A902078C3
:1009B0000028CED0642808D0692806D075281ED01B
:1009C0005A460B9990476D1C58E00A994FF00A0956
:1009D00001C90A91002802DA40422D2102E03905BE
:1009E00004D52B218DF82010012103E0F90704D054
:1009F0002021F7E78A4608AE0DE00021FAE70A99C0
:100A00004FF00A0901C90A91F7E74946FFF793FB3E
:100A1000303106F8011D0028F7D1ADEB060000F1DA
:100A20002009780701D44FF00108C84502DDA8EB82
:100A3000090000E000208046002706E008A85A468A
:100A4000C05D0B9990476D1C7F1C5745F6DB04E099
:100A500030205A460B9990476D1CB8F10001A8F15F
:100A60000108F5DC05E016F8010B5A460B99904792
:100A70006D1CB9F10001A9F10109F4DC641C65E702
:100A8000092801000A68531C0B60107070470000B1
:100A9000FFF702FCFFF794FBFFF710FCFFF704FEE3
:100AA0001EE010A11448FFF70CFF0A240DE02246B7
:100AB00012A11448FFF718FF124800F02FF84FF466
:100AC000FA70FFF765FB601EC4B2002CEFDC0EA1CC
:100AD0000948FFF7F6FE20BF0DA10748FFF7F1FE1A
:100AE000DFE70000476F696E6720746F20736C65E5
:100AF00065700D0A000000000038014025640D0AF1
:100B00000000000014000020536C6565700D0A00A1
:100B1000576F6B652075700D0A00000070B50546B3
:100B200000240BE000BF80210748FFF71CFE0128CE
:100B3000F9D1295D0448FFF7D1FE641C2846FFF770
:100B4000F3FAA042EED870BD003801406C0B0008EB
:100B5000000000201400000010090008800B0008AD
:100B600014000020FC040000200900080000000020
:100B7000010203040102030406070809020406082F
:0400000508000105E9
:00000001FF
